:020000040000FA
:10000000601B0020A9010000017D0000B301000079
:1000100000000000000000000000000000000000E0
:100020000000000000000000000000000D7D000046
:100030000000000000000000157D00001D7D000094
:10004000257D00002D7D0000357D00003D7D0000F8
:10005000457D00004D7D0000557D00005D7D000068
:10006000657D00006D7D0000757D00007D7D0000D8
:10007000857D00008D7D0000957D00009D7D000048
:10008000A57D0000AD7D0000B57D0000BD7D0000B8
:10009000C57D0000CD7D0000D57D0000DD7D000028
:1000A000E57D0000ED7D000000F002F800F050F862
:1000B0000CA030C8083824182D18A246671EAB467D
:1000C00054465D46AC4201D100F042F87E460F3EF8
:1000D0000FCCB6460126334200D0FB1AA246AB46EF
:1000E00033431847B8410000D841000000230024E2
:1000F00000250026103A01D378C1FBD8520700D35F
:1001000030C100D50B60704710B5642902D103F0EF
:100110003DFA10BD782902D103F06EFA10BD6329B3
:1001200002D103F027FE10BD732902D103F02AFE8D
:1001300010BD002010BD1FB503F094FD0400002089
:10014000002103F087FF401C60601FBD10B510BD8B
:1001500003F018FF1146FFF7EEFF01F069FA03F014
:100160003FFF03B4FFF7F2FF03BC01F0C3F9000047
:1001700070B505460C46164602E00FCC0FC5103E82
:10018000102EFAD2082E02D303CC03C5083E042E4B
:1001900007D301CC01C5361F03E021782970641C08
:1001A0006D1C761EF9D270BD07488047074800478E
:1001B000FEE7FEE7FEE7FEE7FEE7FEE70448054947
:1001C000054A064B70470000ED010000A900000041
:1001D000600F0020601B00206013002060130020CF
:1001E00035480068704734484068704710B5334858
:1001F000816B334A1161C16B324841600021016259
:1002000041698907CA0F012191404269D207D20F83
:100210009140CAB2416940698904890E5143800204
:10022000294A800E504303F06CFC2349086010BD3E
:10023000F8B5264F0126234D01280FD00020286253
:10024000214C1046214603F05CFCC0B2012808D8BE
:10025000EE616F6101210A46134619E02E620C46D9
:10026000EFE70021E961FF2101318006800A0843A0
:10027000686168698007C00F86406869C007C00F61
:1002800086406869F2B28004810E68698002830E3C
:100290002046094C51436060584303F032FC206013
:1002A000F8BD30B4054B9C6B054D2C61DB6B054CE8
:1002B000636030BCBCE700000000002080FD03004C
:1002C000001200410010004100127A0000010200FB
:1002D000F0B52122002310265206904201D1674A30
:1002E00008E043221206904202D1644A403201E003
:1002F000624A8032012425460F689D402F40AF425C
:1003000043D10F79012F0DD045614D79AD070DD542
:100310009C001559AD08AD001551155902273D43F4
:1003200015510BE007692F430761EEE79D00575910
:10033000BF08BF0057515759274357514C7964079D
:1003400004D59C00155904273D4303E09C00155932
:100350000427BD4315514C79A40604D59C001559BA
:1003600020273D4303E09C0015592027BD4315512C
:100370004C79640604D59C00155940273D4303E0A1
:100380009C0015594027BD4315515B1CB342B1D3A6
:10039000F0BD3B490160002101716221417170474C
:1003A0000246126800200A4200D0012070470A0667
:1003B000920D012312189B02D21811600A0A9200B2
:1003C00010185A0080180160704710B50B069B0D7D
:1003D0000124CA431B18A4021B191A60090A8900C8
:1003E000081861004018026010BDF0B50126254DC7
:1003F000002334469C400C420ED0002810D0012827
:1004000011D0204C9F0080343C192768BF08BF00E2
:1004100027602768174327605B1C102BE9DBF0BDC2
:100420009C006419F1E79C006419276CBF08BF00A9
:100430002764276C17432764EEE77CB504461E4605
:100440000D466846FFF7A5FF6846009502716946AC
:100450002046FFF73DFF21204006844201D10020C5
:1004600006E043200006844201D1012000E0022082
:1004700032462946FFF7B9FF7CBD0000003000413D
:10048000FFFF00000020004110B504461848016B32
:1004900002290AD0006B032807D0FFF7A1FE2146EE
:1004A00003F02FFB1349086110BDFFF79CFEF6E730
:1004B00010B5FFF7E9FF0F49886803228008800024
:1004C00010438860002010BD0A494A68D207FCD159
:1004D0000860704700B50346FFF7F6FF184600BDF9
:1004E000044841688907FCD50068C0B27047000025
:1004F00000100041006000400078704701707047B4
:1005000030B5002405E00D19ADB2455D1555641CEC
:10051000A4B29C42F7D330BD70B5002405E00E199B
:10052000155DB6B28555641CA4B29C42F7D370BD6C
:1005300070B514000FD01A4A83049E18F268400761
:1005400095B2184AC00A10430A4623462946FFF7C7
:10055000E3FF2819F06070BD70B514000FD0104A89
:1005600083049E18B26A400795B20F4AC00A10432E
:100570000A4623462946FFF7C3FF2819B06270BD1B
:1005800010B500290BD0064A83049B189A6A4007CD
:10059000054CC00A5118204389B20818986210BD52
:1005A00000020146000002460000034670B5044602
:1005B000082802D90020C04370BDFB48A6043018AB
:1005C00005461021FFF79AFF2846FFF795FF002800
:1005D000FAD1F5481F2118303018FFF78FFFF34884
:1005E00001218288A1408A438280F14A0020610073
:1005F0005052EE49891D0855EB48203034182046EA
:10060000FFF77AFF0028FAD1012070BDF8B51C462B
:1006100016460F460546082802D90020C043F8BDFB
:10062000012F06D0022F04D0042F02D00420C04393
:10063000F8BD6007810FDF48FAD1002C0CD0012FE4
:1006400002D0022F08D103E021210C42F0D003E0B8
:10065000A10601D52106EBD52846FFF7A7FF210902
:100660000901D1483943AF0410383818FFF746FF65
:10067000002E0AD1CD48D04A0688711C89B201806B
:10068000914202D1032189030180C748F030381814
:100690004661C548012138180646FFF72FFF30464E
:1006A000FFF72AFF0028FAD1C048E107C90F4288A6
:1006B000A9401143418001218288A9408A43828058
:1006C000BB4A002069005052B849891D4855B648B8
:1006D00020303C182046FFF70FFF0028FAD068B200
:1006E000F8BD70B50646082802D90020C04370BD89
:1006F000AD48B40410382018FFF7FEFE0007000FC5
:10070000012802D00420C04370BDA7482030201823
:100710000546FFF7F1FE132802D00220C04370BD4A
:10072000A148022120180446FFF7E8FE2046FFF703
:10073000E3FE0028FAD12846FFF7DEFE142805D094
:100740003046FFF733FF0320C04370BD012070BD6A
:1007500070B50646082802D90020C04370BD9248F3
:10076000B50410382818FFF7C7FE0007000F01284E
:1007700002D00420C04370BD8B48082128180446CD
:10078000FFF7BCFE2046FFF7B7FE0028FAD18749E5
:1007900001208A88B04082438A80498808420CD070
:1007A000002070BD2046FFF7A7FE00070BD530469E
:1007B000FFF7FCFE0C20C04370BD7B4810302C18A6
:1007C000794820302D182846FFF796FE0028E9D1F9
:1007D000012070BDF7B582B002981446082803D9ED
:1007E0000020C04305B0F0BD86046F4810383018B3
:1007F000FFF782FE0007000F012802D00420C0434B
:10080000F0E7002C0CD06848203030180190FFF73A
:1008100073FE172807D01C2805D00620C043E1E747
:100820000D20C043DEE702980125604F8540B8885F
:10083000054211D05C4810303018FFF75DFEC0064D
:10084000C00EC10620D55848102118303018FFF7C7
:1008500055FEB888A843B880584830180090FFF774
:100860004BFE8006000C844200D904460098406884
:1008700087B20198FFF740FE17280DD01C280BD037
:100880000298FFF793FEC8E700070BD50298FFF721
:100890008DFE0C20C043A5E744484088054203D0A4
:1008A000BC4201D900209DE7BC42DFD82246039913
:1008B0000298FFF73DFE3C48202130180646FFF71E
:1008C0001DFE3046FFF718FE0028FAD13748818810
:1008D0000D438580204685E7F7B582B0029814461F
:1008E000082802D90020C0437CE787042E4810382E
:1008F0003818FFF701FE0007000F012802D004207E
:10090000C0436FE7002C19D02C4820303818FFF76F
:10091000F3FD8006000CA04200D20446224820309D
:100920003818009025483E18706A85B20098FFF785
:10093000E3FD172815D01C2803D00CE00D20C04380
:1009400050E7002D1AD13046FFF7D6FD71688002BE
:1009500089B2884205D10298FFF728FE0620C043DD
:1009600040E702990120884010494988084203D095
:10097000002D03D1002035E7002DD5D0A54200D2AF
:100980002C46224603990298FFF7E6FD06484021CF
:1009900038180546FFF7B2FD2846FFF7ADFD0028E1
:1009A000FAD120461EE70000100001460800002092
:1009B000F0010020FAFFFFFFF0FF000000020146F7
:1009C000FFB583B003981E461546082803D90020BA
:1009D000C04307B0F0BD8404EF482018FFF78CFD3A
:1009E0000007000F022804D0042802D00420C043CE
:1009F000EFE7002D1DD03078717800024018B178F3
:100A000000024018F1780002C84202D10B20C04316
:100A1000DFE70C9800280FD0DF4830302018074659
:100A2000FFF76AFD42280AD0222808D00620C043DA
:100A3000CFE70D20C043CCE70A20C043C9E7D74821
:100A400031782018FFF75AFDD4487178401E2018DD
:100A5000FFF754FDD148B178801E2018FFF74EFDF6
:100A6000CE48F178C01E2018FFF748FDCB490C98FE
:100A7000273961180862C948D93020180190FFF75A
:100A80003BFD8006000C854200D9054603990120F4
:100A9000884000900198406886B23846FFF72CFDE8
:100AA000002808D0BE4900984988084206D0B542BF
:100AB00004D900208DE70320C0438AE7B542E9D876
:100AC0002A4604990398FFF733FDB34820211030DC
:100AD00020180746FFF712FDAF4828302618384681
:100AE000FFF70AFD0028FAD1AB4820302418204631
:100AF000FFF702FDC006C00EC10605D53046102125
:100B0000FFF7FCFC284664E70007F0D530460821D3
:100B1000FFF7F4FC0C20C0435BE7FFB5002485B071
:100B20000646082802D9601E09B0F0BD9A48B504EF
:100B30002818FFF7E1FC04900007000F022804D0FA
:100B4000042802D00420C043EEE70798002805D00F
:100B500094487700C05B002803D022E00D20C043FA
:100B6000E2E78E48D930281803908B483030281897
:100B70000125B54002900398406A84B20298FFF7BD
:100B8000BBFC002806D086484088054207D0002CD0
:100B900003D006E00320C043C6E70020C4E7002CD2
:100BA000E9D07F480021801D81550498B204410797
:100BB0007948490F1030151802291FD0042957D041
:100BC00021463046FFF7DCFC7648C45328464021D6
:100BD000FFF794FC2846FFF78FFC0028FAD17148F4
:100BE000C15B091B0904090CC15305D06C480122E3
:100BF000801D815D11438155204695E7694CE05B7E
:100C000000285BD1082269463046FFF7A5FC28463C
:100C10004021FFF773FC2846FFF76EFC0028FAD14D
:100C200068460178089801706846417808984170D4
:100C300068468178089881706846C1780898C170C4
:100C400068460E99007908800102684640790818C4
:100C50000E9908806846807901026846C0790818B4
:100C6000E05327E0224630460699FFF775FCADE7D2
:100C70004C4CE05B002821D1022269463046FFF748
:100C80006BFC28464021FFF739FC2846FFF734FC6F
:100C90000028FAD1684600780102684640780818B2
:100CA00080B24149E053884204D93046FFF77EFCC8
:100CB0003E4839E73A498020891D8855E45B07980A
:100CC0008442CFD90446CDE7F8B51546082802D9A5
:100CD0000020C043F8BD8404304B304A2E485933BD
:100CE000273A0427E618A2182018FF430B0003F048
:100CF0009CF9084F050910421316444F27482978DC
:100D00001F3802E02548297823382018FFF7F6FB22
:100D100031E0288810612EE0288810622BE0FFF770
:100D2000EBFB0007000F01282DD13046FFF7E4FB55
:100D3000002802D00120C043F8BD174822211030FE
:100D400020180546FFF7DAFB1348203026180DE07F
:100D50003046FFF7D1FB000708D50F48082128309F
:100D60002018FFF7CBFB0C20C043F8BD2846FFF747
:100D7000C3FB0028ECD10120F8BDFFF7BDFB000745
:100D8000000F012801D03846F8BD29783046BDE76C
:100D90000920C043F8BD00000000014627010146BC
:100DA00008000020F0010020EA05000017FCFFFF0A
:100DB0007047704770477047007870470170704700
:100DC000F0B593B0E648FFF797FB1190E448401E5A
:100DD000FFF792FBE24C1090A41E2046FFF78CFB1D
:100DE000651E0F902846FFF787FB0E90A01DFFF7AA
:100DF00083FB0D90601DFFF77FFB0C90D8480830F7
:100E0000FFF77AFB0B90D648C01DFFF775FBD44E59
:100E10000A90B61D3046FFF76FFB0990E01DFFF703
:100E20006BFB0890B01DFFF767FB0790701DFFF785
:100E300063FB0690301DFFF75FFB0590F01CFFF78A
:100E40005BFB0490C6481030FFF756FBC44F03907D
:100E50000F373846FFF750FB0290781EFFF74CFB28
:100E60000190F01DFFF748FB00908021BD48FFF77F
:100E700045FBBC48FFF740FBA01C1199FFF73EFB68
:100E8000601C1099FFF73AFB20460F99FFF736FBDD
:100E900028460E99FFF732FBA01D0D99FFF72EFB98
:100EA000601D0C99FFF72AFBB01C0B99FFF726FB7E
:100EB000701C0A99FFF722FB30460999FFF71EFBC9
:100EC000E01D0899FFF71AFBB01D0799FFF716FB05
:100ED000701D0699FFF712FB301D0599FFF70EFBF9
:100EE000F01C0499FFF70AFB781C0399FFF706FB37
:100EF00038460299FFF702FB781E0199FFF7FEFAC8
:100F0000F01D0099FFF7FAFA13B0F0BD10B50446D2
:100F100093484130FFF7F0FA207091483D30006867
:100F2000608010BD10B501780446002903D08C48BC
:100F30004130FFF7E3FA8A4960883D31086010BD0F
:100F400010B58848FFF7D8FA10BD70B50446C72021
:100F5000044202D00020C04370BD824D2846FFF7F6
:100F6000CBFA204301462846FFF7C8FA002070BD9F
:100F700010B504467A48FFF7BFFA20707848401E43
:100F8000FFF7BAFA60707648801EFFF7B5FAA070D6
:100F90007348C01EFFF7B0FAE0707148001DFFF7FC
:100FA000ABFA20716E48C01CFFF7A6FA60716C485E
:100FB0000830FFF7A1FAA0736948C01DFFF79CFA3B
:100FC000E0736748801DFFF797FA20746448401D5E
:100FD000FFF792FA607462480C30FFF78DFAA07246
:100FE0005F480B30FFF788FAE0725D480A30FFF780
:100FF00083FA20735A480930FFF77EFA6073584825
:101000001030FFF779FAA07155480F30FFF774FAE6
:10101000E07153480E30FFF76FFA207250480D30E0
:10102000FFF76AFA607250480178A1744178E17460
:1010300081782175C07860754B48401E0078A07596
:1010400010BD10B5044601784548FFF757FA4448EB
:101050006178401EFFF752FA4148A178801EFFF7E1
:101060004DFA3F48E178C01EFFF748FA3C48217925
:10107000001DFFF743FA3A486179C01CFFF73EFABA
:101080003748A17B0830FFF739FA3548E17BC01DAE
:10109000FFF734FA3248217C801DFFF72FFA3048E1
:1010A000617C401DFFF72AFA2D48A17A0C30FFF72A
:1010B00025FA2B48E17A0B30FFF720FA2848217BEC
:1010C0000A30FFF71BFA2648617B0930FFF716FA52
:1010D0002348A1791030FFF711FA2148E1790F3048
:1010E000FFF70CFA1E48217A0E30FFF707FA1C486A
:1010F000617A0D30FFF702FA1B48A17C0170E17C98
:101100004170217D8170617DC1701749A07D491EAC
:10111000087010BD10B50C46030002F086FF0604EF
:10112000080C1014181D0846FFF78BFF12E0084644
:10113000FFF71EFF0EE00878FFF707FF10BDFFF76F
:10114000FFFE207006E00846FFF7ECFE02E00846CE
:10115000FFF7DCFE002010BD0020C04310BD0000E2
:1011600003600046002300461900002070B5744C4F
:1011700005462088286161882846FFF718F9012074
:1011800000F047FA61882846FFF71FF9012000F0B8
:1011900040FA70BDF8B507460020694D0446460088
:1011A00069883846FFF703F9012000F032FA6988B0
:1011B0003846FFF70AF9012000F02BFA2988384653
:1011C000FFF7EEF83043641C102CE8D3F8BD70B57F
:1011D0005B4C054620886861012000F01AFA61889E
:1011E0002846FFF7E4F8012000F013FA618828464A
:1011F000FFF7EBF8012000F00CFA70BDF8B50746D8
:1012000016462020801B81400C464D4D18E0298851
:10121000002C384602DAFFF7CAF801E0FFF7D5F8EC
:10122000012000F0F6F969883846FFF7C0F8012080
:1012300000F0EFF969883846FFF7C7F86400761EBA
:10124000002EE4D1F8BD70B50C46164600210546C7
:101250002022C943FFF7D2FF042205212846FFF7C9
:10126000CDFF3748052241682846FFF7C7FF052212
:1012700021462846FFF7C2FF022211462846FFF703
:10128000BDFF102231462846FFF7B8FF2846FFF77A
:101290006DFF70BDF8B5002543273F0600240021EF
:1012A0002022C9433846FFF7A9FF04220621384609
:1012B000FFF7A4FF052221463846FFF79FFF0522CE
:1012C00001213846FFF79AFF3846FFF780FF38467E
:1012D000FFF760FF06463846FFF748FF002E02D0B2
:1012E0001848864209D1641C082CD8DD6D1CEDB26B
:1012F00015A002F0D9F8022DD0D32046F8BD7CB558
:10130000054614460E466846FFF743F8304620432C
:1013100000900120694608712846FEF7D9FF012296
:1013200021461046FFF761F8012231461046FFF7CB
:101330005CF8034D6E802C80FFF7ACFF68607CBDCD
:1013400040000020FFFF00000D0A706879206964EA
:1013500020646574656374206572726F7221210D5B
:101360000A00000010B54D4C4D482178FFF7C6F833
:101370004B486178401EFFF7C1F84948A178801EAC
:10138000FFF7BCF84648E178C01EFFF7B7F84448BD
:1013900008342178001FFFF7B1F841486178401FF9
:1013A000FFF7ACF83E48A178801FFFF7A7F83C484C
:1013B000E178C01FFFF7A2F83948241F21780838C8
:1013C000FFF79CF8364861780938FFF797F83448FA
:1013D000A1780A38FFF792F83148E1780B38FFF727
:1013E0008DF810BD10B52F4C80212046FFF786F8F0
:1013F0002046FFF781F8FFF7B5FF284C284839341D
:1014000021781038FFF77AF8254861781138FFF70E
:1014100075F82348A1781238FFF770F82048E17872
:101420001338FFF76BF81E4821790C38FFF766F880
:101430001B4861790D38FFF761F810BD10B5194CE4
:1014400080212046FFF75AF82046FFF755F8134C45
:101450001348393421781038FFF750F81048617874
:101460001138FFF74BF80E48A1781238FFF746F80D
:101470000B48E1781338FFF741F8094821790C3817
:10148000FFF73CF8064861790D38FFF737F810BDD3
:101490000248C01FC169491CC16170474F0000204C
:1014A000136000460023004670477047704770473E
:1014B0007047704770477047704770477047704774
:1014C0007047704770477047704770477047704764
:1014D0007047704770477047704770477047704754
:1014E0007047704710B5C0B2FEF7F4FF10BD002082
:1014F000C0437047FEE7000038B501F021FD044607
:1015000083A001F0D1FF83A18FA001F0CDFF90A0B7
:1015100001F0CAFF98A00090A37D627D217D98A074
:1015200001F0C2FF7BA188A001F0BEFF38BDF0B57D
:101530008FB001F005FD04460020009001901821B5
:1015400002A802F07EFA182108A802F07AFAE07DDB
:101550000025FF2859D1207EFF2856D1607EFF2824
:1015600053D100236A461946184601F0B1F968467E
:101570000078FF2807D169464978FF2903D16946D9
:101580008978FF2910D0E075684640782076684653
:10159000807860766846C078A07668460079E07604
:1015A00068464079207731E08048882127460170DD
:1015B00002AE40377EA001F077FF0025FEF790FFD6
:1015C00070556D1CEDB2152DF8D308A902A800F0D6
:1015D00048F900280BD0787B002803D008A95AA02E
:1015E00001F062FF182102A802F02BFAE2E70020C6
:1015F00001F087F90023224617321946184601F0F8
:10160000AEF901F09FFC01F087FD012528460FB0DF
:10161000F0BD01B582B0FEF7E3FD6A4902F071FA50
:101620000299484300E0401E00900028FBD10EBD07
:1016300001F086FC044601F052FC634900200A4692
:10164000FEF72FFE0A20FFF7E4FF01F0ADF901F0ED
:10165000EFF9FFF7B5FBFEF7C3FD5A4902F051FA67
:101660005A49086001F00CFC01F023FDFFF75FFF11
:101670002646A036307A0127002501280CD1022009
:1016800001F082FA21463572AB31002002F031FAC6
:101690002A20075501F040FD072636033068401C1C
:1016A0000DD020462030817A00292CD001F020FC7A
:1016B000002804D03168706881F3088880472A20A8
:1016C00005554034607B002801D0FFF715FF01F07D
:1016D000D4FD607B002801D001F051FD3C4807702B
:1016E000002001F00DFC3B4C00F01BFF207800288F
:1016F00006D0002001F010FC012001F00DFC257047
:1017000001F085F9F0E7877201F006FDD7E70000E8
:101710000D0A00003D3D3D3D3D3D3D3D3D3D3D3DD6
:101720003D3D3D3D3D3D3D3D3D3D3D3D3D3D3D3DE9
:101730003D3D3D3D3D3D3D3D3D3D3D3D3D3D3D3DD9
:101740003D3D3D3D3D3D000025730D0A000000007C
:10175000205B57373530305D2053657269616C20EE
:10176000746F2045746865726E657420446576698F
:1017700063650D0A00000000537461626C6500002F
:10178000203E3E204669726D7761726520766572F3
:1017900073696F6E3A20426F6F742025642E256442
:1017A0002E25642025730D0A00000000A0000020F3
:1017B000494E505554204649525354204D41433FC1
:1017C0000D0A00001027000000127A0000200046D9
:1017D0009C000020B0010020F8B500270D4604460B
:1017E0000F70F94E09E002F04FF8024620463168CA
:1017F00002F06CF8002804D0361D30680028F2D1C1
:1018000029E03068002826D0EF48301A8005060EFF
:101810002B2E07D02C2E11D0A11C284602F00EF83A
:101820003046F8BD207A0D2815D1607A0A2812D1E9
:101830000622A11C284602F0A5F8F1E7002002E0EC
:101840002954401CC0B2211889780D29F8D12118DB
:10185000C9780A2901D0FF20F8BD2F5428184770F5
:10186000DEE7F0B597B00E46074601F069FB0024AD
:10187000149010A8047625460421304602F0DFF8C3
:10188000D2A13846FCE304A9FFF7A6FF0746FF28CC
:101890007BD004A801F0F8FF80B200906846007C7D
:1018A000002826D0C84988222439097811426DD0F1
:1018B0003B0002F0BAFB3AF2F1F1F0EFEEEDEEECA4
:1018C000EBEAE9E8E7E6E5E4E3E3E3E3E3E3E2E1C7
:1018D000E0DFDEDDDCDBDAD9D8D7D6D5D4D3D2D180
:1018E000D1D0D1D1D1D1D1D1D1D1CF6AEED1D1CE38
:1018F000CD6AB548B90040583B0001783170407856
:101900007070B61C02F091FB3A1E30454A4EE95306
:10191000E9575B5F62676A757881E8E8E98BE8E818
:101920008D9FEAEDE5E4E3E2E1E0DFDEDDDCDBDA3A
:10193000D9D8D8D7D8D8D6D5D4D3D2D1D0CFE9CE4C
:10194000CDCCCBCA1498149B149A1499407E1B7F5B
:10195000D27E897E6F460FC714989DA1037EC27DFB
:10196000304601F0AFFDCAE1A1A1A3A002F06CF8DE
:1019700000281498807D00901498437D027D06D045
:101980009FA1304601F09EFDB9E1F0E3F0E39FA195
:10199000F7E7149AA0A13046521D00E11498603078
:1019A000C27802E014982030BFE09CA17AE114983C
:1019B00060308278F9E714984030427BF5E714985C
:1019C00040300278F1E71498413001E01498433038
:1019D00041780078B8E014982130B3E01498149955
:1019E00020300078C97F009101901498837F427F56
:1019F00013E0149820300AE0149820300279C1785E
:101A0000019200918378427807E014986030027A5E
:101A1000C179019200918379427981A10FE0834AD3
:101A2000C3E714984079002856D014991498097F78
:101A3000C07E009014980191837E421D7CA13046A7
:101A400001F040FD5BE114982330417B007B7BE09B
:101A5000B0E398E37EE356E3C7E344E335E324E3EE
:101A600016E3E9E2DBE2CEE2C1E2A9E29BE28DE22B
:101A70007EE270E247E23DE230E222E20BE20BE27C
:101A8000F5E1E9E1D0E1C2E1B5E1A7E199E18CE15D
:101A90007EE16EE370E162E15EE147E139E134E16C
:101AA00025E118E1F2E011E10CE1FDE0F2E0E6E011
:101AB000DEE0D6E07FE07BE077E067E05CE053E0EB
:101AC0004EE048E043E03BE035E030E02BE026E04C
:101AD00021E01CE005E001E064E0FAE01498213028
:101AE0002BE0149860300179002907D0407A002853
:101AF00058D0149A48A13046693250E014982030EA
:101B0000827B417B01920091037BC27A85E7149826
:101B10004030827949E714984030C27945E71498FB
:101B20004030027A41E714984030427A3DE71498F9
:101B30004030827A39E714982330417C007C03E0FE
:101B400014982330417D007D0A0202432DE714984A
:101B50002030427E29E7149839A12030827EA1E00E
:101B600014988030C27E20E714988030C17F0091A5
:101B7000837F427F34A104E714984030807B0028A3
:101B800010D0149A24A130464E3208E01498403008
:101B9000007E002806D0149A1FA13046583201F06A
:101BA00091FCACE020222CA17CE0812000029CE092
:101BB0004120400299E004488821243800780842F6
:101BC0004CD0102091E00000C40000200D0A00005D
:101BD000253032583A253032583A253032583A2595
:101BE0003032583A253032583A2530325800000009
:101BF000446576656C6F7000537461626C650000BB
:101C000025642E25642E25640000000025642E2501
:101C1000642E256464657600257300002564000049
:101C200025642E25642E25642E256400D60B000025
:101C300025732D25303278253032782530327800E2
:101C400025303258000000002530325825303258F7
:101C50002530325800000000256300004320400278
:101C600043E0FE48882100780842F7D020203CE07D
:101C7000FA48882100780842F0D0802035E0149896
:101C8000F7494030407980000A580AE01498403003
:101C900042798AE614982030807A8100EF48083033
:101CA0004258F0A130467AE7EC480178882001429A
:101CB000D4D0149923314A7B0B7B1102194301299B
:101CC00004D012E014988030027F6EE62120C0011B
:101CD0000BE0002269E6E148882100780842BDD087
:101CE00014980121203081729020044307E0149859
:101CF000DDA14030037BC27A304601F0E3FBDC48D3
:101D000004420AD0B61E357064E214988030827E98
:101D10004BE6212080020443BCE7D6A1304601F007
:101D200025FE304601F0B0FD861953E21498C07DBF
:101D3000002807D11498007E082803D11498407E0B
:101D4000DC2809D0149ACCA104A8173200F01CFD9D
:101D5000B8E1852000023CE28320000239E200F075
:101D6000BAFC10A9087600990129F2D10128F0D80F
:101D700014996031C8702DE200F0ADFC10A908760E
:101D800000990129E5D10328E3D81499203115E100
:101D900000F0A1FC10A9087600990129D9D10128E9
:101DA000D7D814996031887014E200F094FC10A91F
:101DB000087600990129CCD10128CAD8149940315C
:101DC00096E000F088FC10A9087600990129C0D19E
:101DD0000128BED8149940310870FBE104A801F035
:101DE000E0FC0146A5488142B3D814984130017007
:101DF000090A4170EEE104A801F0D3FC9F49884232
:101E0000A7D8149943310870000A4870E2E104A889
:101E100001F0C7FC0146994881429AD814982130B4
:101E20000175090A4175D5E115A904A800F0F0FB78
:101E300000288ED010A8017D1498417710A8417D0C
:101E40001498817710A8817D1498C17710A8C17D5E
:101E5000149820300170BDE115A904A800F0D8FB4A
:101E60000028E6D0149810A9097D20301EE015A99D
:101E700004A800F0CDFB0028DBD0149810A9097D40
:101E80002030417010A9497D817010A9897DC170F1
:101E900010A9C97D01719DE115A904A800F0B8FB46
:101EA0000028C6D010A91498097D6030417110A98E
:101EB000497D817110A9897DC17110A9C97D017207
:101EC00088E100990E2984D8202804D0149804AA07
:101ED00064A1401D10E1149845717BE104A801F054
:101EE00060FC664988428BD8149923310873000A34
:101EF00048736FE104A801F054FC604988428CD813
:101F0000149921317BE015A904A800F081FB002879
:101F100011D0149810A9603005711498097D2030F3
:101F2000C17210A9497D017310A9897D417310A95F
:101F3000C97D81734EE114980121603001716946B9
:101F4000097C202905D0149804A9693001F076FC99
:101F500040E145723EE104A801F016FC009980B210
:101F60000229B0D80E28AED814994031887131E1D9
:101F700000F0B1FB10A908760099012900D0E8E62D
:101F80000128FCD814994031C87123E100F0A3FB6B
:101F900010A9087600990129F1D10228EFD81499E7
:101FA0004031087216E100F096FB10A908760099FE
:101FB0000129E4D10128E2D814994031487209E19D
:101FC00000F089FB10A90876014600980128D6D1B7
:101FD0000429D4D8149840304279012A05D1032924
:101FE00003D0042901D08572F4E08172F2E004A8E4
:101FF00001F0D7FB21498842C1D8149923310874D4
:10200000000A4874E6E004A801F0CBFB1B498842B3
:10201000B5D8149923310875000A4875DAE004A888
:1020200001F0B2FB009980B20329A8D8FF28A6D8F6
:10203000149920314876CDE0009802289FD104A859
:1020400000F031FB00289AD016A904A800F061FB2B
:1020500010A8017E14982030817612E0A0000020A4
:10206000C0010020257300002564256400000000E5
:10207000B08000000D0A00002E3A2D00FFFF000086
:10208000AAE0002902D001218177A3E08577A1E0B1
:1020900000F021FB10A908760099012989D10128B7
:1020A00089D814998031C87694E0009806288ED19A
:1020B00004A800F0F8FA0028C5D0149904A89D31AE
:1020C00000F027FB0028BED084E00099092993D8AE
:1020D000202804D0149804AAF7A14E300CE01498DC
:1020E0004030857376E00099092985D8202806D0EC
:1020F000149804AAF0A1583001F0E4F96AE01498A9
:102100004030057666E004A801F04BFB1921090375
:102110008842149904D90020AB3101F0EAFC18E69A
:10212000AB3101F0E6FC14980121A030017240208F
:1021300004431498149920300078C97F00910190CD
:10214000DE4A14980292837F427FDDA1304601F07F
:10215000B9F93FE000F0BFFA10A90876009901290B
:10216000DDD10128DBD814998031087732E042E0D4
:102170003EE000F0B0FA10A9087600990129CED10E
:102180000128CCD826E016A904A800F0C2FA10A8AD
:10219000007E02070109120F10A80276009802289B
:1021A000BDD8012ABBD80129B9D814984030C172D2
:1021B00002730FE004A801F0E7FA009980B2032946
:1021C000ADD80028ABD0FF28A9D8149980318876E3
:1021D00000E00443BEA1002001F0F0FA002801D085
:1021E000FFF751FB204617B0F0BD81200002F0E759
:1021F00043204002EDE721208002EAE710B50022EB
:102200000621FEF761FD10BDF3B591B0064600F062
:1022100097FE054600200E90AE48FEF76DF90027A8
:10222000AD4C1728277008D002DC00283ED19BE077
:102230001828FCD01C28F9D193E0A6481038FEF7E6
:102240005BF9C00707D001206070A7800146A14854
:102250000838FEF753F9A078012803D10220FFF7D0
:10226000CDFFA7709D48406A0204120C1ED0129840
:102270000F9031460220FEF72FFB80B23018203835
:10228000C77705A93046FFF7A7FA2B2866D10622A3
:1022900093A105A801F0A4FA002808D02946062237
:1022A000173105A801F09CFA002803D06BE02078D4
:1022B000802101E0207888210843207000064DD558
:1022C000687E2B7FEA7EA97E01AC0FC4287E009039
:1022D0008148EB7DA430C26A83A10F9801F0F2F827
:1022E0000F9C0A3605A930460A34FFF775FA2C28E8
:1022F00049D16846007D202803D15820405D002840
:1023000006D02946583105A801F09EFB00283AD195
:1023100005A801F0B9FA021D3146204601F032FB52
:1023200005A801F0B1FA851905A82D1D01F0ACFA38
:102330000419241D21462846FFF793FA0E9005A89C
:1023400001F0A2FA0546204601F09EFA28180E3048
:1023500082B202201299FEF73DFA14E0002013B079
:10236000F0BD0220FEF7F4F90220FEF71FF9534AF0
:102370002123521E01210220FEF748F9022802D132
:102380006770FEF7AEF90E98E9E7F3B599B0054628
:1023900000F0D6FD044600204F4E1690307057488E
:1023A000FEF7AAF800287DD0222826D15448406A9A
:1023B0000204120C21D015A800901A9F17AB2946D1
:1023C0000120FEF7AAFB80B2281800212038C1772F
:1023D00005A92846FFF700FA2B286BD1062240A159
:1023E00005A801F0FDF9002808D021460622173182
:1023F00005A801F0F5F9002803D090E0307880219D
:1024000001E0307888210843307000067ED5607E78
:10241000237FE27EA17E01AE0FC6207E00902E4873
:10242000E37DA430C26A30A1384601F04BF80A358A
:1024300005A928460A37FFF7CFF92C286FD168463F
:10244000007D202803D15820005D002806D02146B9
:10245000583105A801F0F8FA002860D105A801F06C
:1024600013FA021D2946384601F08CFA05A801F03E
:102470000BFA451905A82D1D01F006FAC419241DF3
:1024800021462846FFF7EDF9169005A801F0FCF962
:102490000546204601F0F8F928180E3082B210A83F
:1024A000808A00E035E0009016A301201A99FEF71B
:1024B00087FA34E02AE000002573000052C30000D0
:1024C000465725642E25642E25642E25643A2564FE
:1024D0000D0A000030000946A00000200002094655
:1024E000FFFFFFFFFFFF00002573256325632563C2
:1024F0002563256325630D0A0000000030000546B2
:1025000000020546FFFFFFFF0000000000201BB097
:10251000F0BD0123374A02211846FEF777F81698D6
:10252000F5E770B500F00CFD044633493348FFF77A
:102530002CFF064630493148FFF766FE0546354315
:1025400028042AD4002D28D0280702D500F076FAD6
:102550000FE0E80602D500F0DFFD0AE0E80408D548
:1025600027A000F0A1FF002000F0CBF9012000F02F
:10257000C8F9680623D5022000F006FB0021802858
:102580000CD0A82001552146AB31002001F0B1FA52
:1025900000F0C2FD0420FEF709F870BDA820015527
:1025A0002146AB31002001F0A4FA01202034A072B2
:1025B00000F0B2FDFF20F530FFF72BF801E0280610
:1025C000EBD500F054FA70BD0E484178002910D0C8
:1025D00082880D4B00219A4203D28288521C82804D
:1025E00000E081808288094B9A4202D301228270E6
:1025F0008180704751C30000000C0020000A0020B9
:102600000D0A0000A0000020FFFF0000983A000023
:10261000F3B5002583B02E462C46039801F034F91B
:10262000C7B2002001900090F81F092839D22EE08F
:1026300000F022FF01680398405D095C202902D068
:102640002E2811D02DE00A214C43303C01198CB2C8
:10265000FF2C26D8009901AA50540098401CC0B203
:10266000009003281DD810E0FF2C1AD8761CF6B273
:10267000042E16D8002401A801F086F804998919BF
:102680002039C8770020019000906D1CEDB2BD424A
:10269000CED301A801F078F804998855012005B03F
:1026A000F0BD0020FBE770B5054600240CE000F00B
:1026B000E3FE0068295D415C88004840000601D4C3
:1026C000002070BD641CE4B2284601F0DDF8A04291
:1026D000EDD8012070BD10B50446112801D2FF20AD
:1026E00010BD00F0C9FE0168085D202805D0204615
:1026F00028383F2803D2513C08E0303C06E0204611
:10270000402C04D9472C02D90446313CE4B220467F
:1027100010BDF3B587B00746002501F0B5F8C6B285
:10272000F00706D1102E04D83878002801D00024F4
:1027300026E0002009B0F0BD385D00F0A5FEC1B272
:102740006A461170039138190491407800F09CFE9C
:10275000C0B26A46507004993929039901D93739B2
:1027600000E03039C9B2392801D9373800E03038B3
:1027700009010143089841556D1CA41CEDB2E4B257
:10278000B442D9D30120D5E7F7B584B0054600247B
:1027900001F07AF82978C0B2002901D0112802D0BE
:1027A000002007B0F0BD002601AF600020184119DD
:1027B0000322684601F0E6F868468178002904D0D3
:1027C000059801F003F80028EBD068468670FFF703
:1027D0006AFF0028E5D039196846FFF79AFF641CA4
:1027E000E4B2062CE1D3062201A9069801F0CAF84A
:1027F0000120D6E770B5314C256866172660304E4B
:10280000B047256070BD10B50021420C16D02D4A8E
:10281000904204D32C4A104201D1102406E02A4AE7
:102820005242904209D3800C07D1112472B6002382
:102830001A462046FFF7DEFF62B610BD122401469D
:10284000F4E710B5410C07D172B6002301461A46D1
:102850001320FFF7CFFF62B610BD70B514460A46CD
:10286000184B1A49984208D3850C06D1FF2501352B
:10287000AC420DD8E3188B420AD8002C01D1884213
:1028800006D801214904FF23411A5B02994201D273
:10289000002070BD72B6234601462220FFF7AAFF32
:1028A00062B6204670BD10B50346002002E01C5CF5
:1028B0000C54401C9042FAD310BD000000E200E02E
:1028C0000110FF1F00FE03000001FCFFFFFF0300DB
:1028D00070B50D46144601000BD001290DD0022918
:1028E00001D0032804D11A4621462846FFF7DBFF12
:1028F00070BD062221462A48F8E71A462146294893
:10290000F4E7F8B50026002817D0012817D00228D0
:1029100019D0032816D101256D041927002420039E
:102920004019FFF78EFF641CA4B2BC42F7D33803F2
:102930004519002E06D000240EE0194800E0194881
:10294000FFF761FFF8BD07252D03E6E720024019D8
:10295000FFF759FF641CA4B2B442F7D3F8BD70B5B9
:102960001C460B46154601000BD0012910D0022948
:1029700001D0032804D1224629461846FFF76DFFEF
:1029800070BD0020FFF7BDFF062229460448F5E789
:102990000120FFF7B6FF224629460248EEE7000075
:1029A00000FE030000FF03001F490020C8607047BD
:1029B00070B51D4C6088401C6080FFF705FE00F07C
:1029C0005BF91A4800250078002808D0E088401CF0
:1029D00080B2E080642802D301202070E5807D2150
:1029E000C900608801F08DF8002905D16580A088B4
:1029F000401CA080FEF74CFD3C21A08801F081F82E
:102A0000002903D1A580A068401CA06070BD10B54E
:102A1000054CE068411CE160232803D3FFF7C8FFA1
:102A20000020E06010BD7047B00100209C00002035
:102A300010B5E1204002FDF73BFD10BD10B500F0E0
:102A400081FA00F069FB10BD10B59F48FDF754FDF9
:102A5000172808D01C2806D00220FDF7A7FD01206A
:102A6000FDF7A4FD10BD0220FDF772FEF7E7FFF7AA
:102A7000EBFFBFF34F8F96499448C860BFF34F8F69
:102A8000FEE794480021017081708180C18041700F
:102A9000C1707047F3B581B000F052FA06460020CD
:102AA000044600900198A83687048B483818FDF733
:102AB00023FD884D172808D002DC002862D152E09F
:102AC000182850D01C285DD144E0834810383818AD
:102AD000FDF712FDC0070AD00120A8700220FFF701
:102AE00010FF7D48012108383818FDF707FDE87808
:102AF000012833D079483818406A0404240C41D0A6
:102B00000120C002844200D90446F01C00F0E0FF1E
:102B1000E9680A19904201D2401A84B22246029909
:102B20000198FDF7D9FE84B2E868210A0019E8602F
:102B3000684601704470022269460198FDF74AFE1A
:102B40000027EF80F01C00F0C3FFE968884219D825
:102B5000AF80AF700198FDF7FBFD13E00198FDF722
:102B6000F7FD0020FEBD21235D4A01210198FDF7FC
:102B70004DFD01460198814204D10020E860019892
:102B8000FDF7AFFD2046FEBDF8B5044600F0D8F9CC
:102B90000646A83600F0D4F905463078453520279A
:102BA00000280FD0F01C00F093FF19221203002818
:102BB00001D0904208D9297A012903D10146494818
:102BC00000F072FC4020F8BD022C02D0042C46D04C
:102BD00039E0297A012903D1014643A000F064FCC1
:102BE00000203C4C0121A06021704E490420FFF7D9
:102BF00051FF03000DD00720A16800030918494ABE
:102C00000220FFF7ACFEA16880B20818A060002087
:102C1000A080607801280BD0E07801280DD0FFF764
:102C2000F6FEF01C00F054FFA1688842DDD80BE0EE
:102C3000287A012807D13CA003E0287A012802D194
:102C400047A000F031FC4027F01C00F041FF214973
:102C5000896888420CD12A7A012A04D007E04E48BC
:102C600000F022FCAEE702464CA000F01DFC8027DD
:102C7000FFF707FF3846F8BD30B51648534A0578C8
:102C8000534B01240021012D0CD18588954203D29C
:102C900085886D1C858000E0818085889D4201D3F8
:102CA000447081808578012D0CD1C588954203D26E
:102CB000C288521CC28000E0C180C2889A4201D3FF
:102CC000C470C18030BD0000300009460400FA0520
:102CD00000ED00E0C801002030000146000201467E
:102CE00052C30000EC410000203E205345474350B2
:102CF0003A46575F5550444154453A4E4554574F14
:102D0000524B202D204669726D7761726520736980
:102D10007A653A205B25645D2062797465730D0ADB
:102D20000000000000020020203E20534547435091
:102D30003A46575F5550444154453A4641494C45FF
:102D400044202D204669726D77617265207570642C
:102D50006174652074696D656F75740D0A000000FB
:102D6000203E2053454743503A46575F5550444113
:102D700054453A4641494C4544202D204E657477D0
:102D80006F726B20646F776E6C6F61642074696D15
:102D9000656F75740D0A000054420000203E2053F8
:102DA000454743503A46575F5550444154453A537E
:102DB000554343455353202D202564202F2025645F
:102DC0002062797465730D0A00000000FFFF0000A7
:102DD00088130000FEB50446032818D2544E65003F
:102DE000705B00900120694608715248A700C059E5
:102DF000FDF76EFA4F48715B001F025DC01E005D5B
:102E0000FDF7F3FA4B48715BC059FDF7D0FAFEBDF0
:102E100070B5012321241D026406002229462046A4
:102E2000FDF70BFB656170BD10B501232120002269
:102E300019464006FDF701FB10BD70B501250024C1
:102E40006D022126760629463046FDF7A9FA0028AC
:102E500001D0012070BD0520FEF7DBFB641CE4B24D
:102E6000052CF0D3002070BD70B5012321245D0234
:102E70006406002229462046FDF7DFFA656170BD31
:102E800070B50120FFF7CFFD0122920343255400C6
:102E90002D0621462846FEF732FA22460021284612
:102EA000FEF7D1F90020FFF7BEFDFFF7DDFFFFF7CA
:102EB000C4FF002811D000201E4908390870FFF710
:102EC000B3FFFFF7A5FF0020FFF784FF0120FFF706
:102ED00081FF0220FFF77EFF70BD0120ECE716495D
:102EE00002200863154988607047704700207047CA
:102EF00010B5FF21212001314006FDF751FA10BD28
:102F000010B5032807D20A4A4100515A094A8000E5
:102F10001058FDF75AFA10BD032808D2054982005F
:102F200089584A68024B4000185A42404A6070472C
:102F300080400000E00100204011004100200041DD
:102F4000E7487047F8B5E64EF92030700020707001
:102F5000B0700125F570044630710F21701D00F02E
:102F60006EFD0D22DFA1701D00F00CFD35750321F3
:102F70007175B175C0227277A823B3770B27D84833
:102F8000F77702262030067042708370C770057193
:102F9000FF2646718671C671047245728572C272CF
:102FA00003734773D34A8173C11C0A73130A4B73AB
:102FB000431C1A74160A5E740C74260A4E74CE4EA4
:102FC0001E75360A5E750C75230A4B754476847639
:102FD000C476047744778477C47720300570C74B74
:102FE000411C0B701B0A4B70C11C0A70120A4A70FC
:102FF00044710C268671C571047244728472C57264
:10300000057345730A21183000F019FDB4480A21F0
:103010004E3000F014FDB248082760308470C47050
:10302000047147718771C77107723221093000F04E
:1030300006FDAB482B2180308776C5760477417733
:103040008177C177A64F0F20A037387000207870A5
:10305000B81C0570290A41703E71310A79710471FA
:10306000210A41713C72A649401E0172090A41724F
:1030700001460A31002000F03CFD50203874002049
:10308000787438461330BD741E21044600F0D7FC16
:1030900013229CA1204600F075FC384631302821CF
:1030A000044600F0CCFC20229BA1204600F06AFCE4
:1030B000F8BD10B5FFF719FFF923894A0021012057
:1030C000FFF706FC864A0021062317320846FFF761
:1030D000FFFB834C607821780002084302D09649B8
:1030E000884207D1FFF72EFFF9237D4A00210120F6
:1030F000FFF735FC0121217503206075A075784C20
:103100004034A07A032805D0042803D0FFF7EEFE50
:10311000607110BD617110BDF0B5714E0025403673
:103120007D27BFB02C46FF00F9236D4A0021012006
:10313000FFF715FCF9236A4600210120FFF7C8FBC1
:10314000F9226946664800F04BFB002811D0641C48
:10315000707BE4B2002803D0214678A000F0A4F9E7
:103160003846FEF756FA052C01D2012DDCD13FB0CE
:10317000F0BD0125F4E710B500F004FC10BD30B53A
:1031800089B0574D03A90120FDF7C4FF6846427C72
:10319000017CC07B6B4607C36846837B427B017B17
:1031A00070A000F081F928462330417B007B0902A2
:1031B00001436846407D009001916846037DC27CD2
:1031C000817C72A000F070F96846407F00906846EC
:1031D000037FC27E817E76A000F066F96846407E5D
:1031E00000906846037EC27D817D77A000F05CF987
:1031F00008A84078009008A803786846C27F817FBD
:1032000077A000F051F92C462034607A01282DD0A7
:103210006420415D601C0129417C0FD0027C0802C2
:10322000A17B104301900091637B227BE17A72A025
:1032300000F03AF9607A032809D017E00A02007C0E
:1032400029460243693177A000F02EF90EE0E07ABA
:10325000002808D1207B002805D1607B002802D1FE
:10326000A07B002807D079A000F01EF976A000F01E
:103270001BF909B030BD7AA0F6E710B5184C86B03E
:103280002146062217316846FFF775FF214601A83F
:1032900004221D310230FFF76EFF214603A80422ED
:1032A00021310230FFF767FF214602A804222531B1
:1032B0000230FFF760FF214604A804226531023086
:1032C000FFF759FF6034E078002801D0022000E0C9
:1032D0000120694688750020FDF71CFF06B010BD6F
:1032E000000E002057495A37353053522D31787827
:1032F0000000000088130000B80B0000581B0000FD
:1033000052C300006465766963652E77697A7769D0
:103310006B692E6E657400002F77697A37353073CC
:10332000722F66772F5737353030785F5332455FCD
:103330004170702E62696E00FFFF0000203E204445
:103340006576436F6E666967207570646174652089
:103350006661696C65642C2052657472793A202527
:10336000640D0A002023204D41433A202530325875
:103370003A253032583A253032583A253032583AC8
:10338000253032583A253032580D0A002023204982
:1033900050203A2025642E25642E25642E25642095
:1033A0002F20506F72743A2025640D0A000000002F
:1033B0002023204757203A2025642E25642E25649B
:1033C0002E25640D0A000000202320534E203A20B1
:1033D00025642E25642E25642E25640D0A00000028
:1033E000202320444E533A2025642E25642E256444
:1033F0002E25640D0A0000002023204465737469A3
:103400006E6174696F6E2049503A2025642E2564E0
:103410002E25642E2564202F20506F72743A2025AB
:10342000640D0A0020232044657374696E61746919
:103430006F6E20446F6D61696E3A202573202F20D6
:10344000506F72743A2025640D0A00002023232057
:1034500055445020313A31204D6F64650D0A00000B
:103460002023232055445020313A4E204D6F64656F
:103470000D0A00007047000010B500F0F3FB001DBE
:1034800010BD00BFD10B000010B50446FFF7F4FFDC
:103490000068005D000704D5DF2C02D020462038EC
:1034A00010BD204610BD00000FB4054910B503AA99
:1034B000029800F06BFC10BC08BC04B01847000078
:1034C000980000200FB41CB5074B06AA7B44694640
:1034D0000090059800F02BFC0020694600F03AFCB3
:1034E0001CBC08BC04B018478508000070B5044631
:1034F00085690068C10601D5302600E02026C00796
:1035000007D070BD62683046A1689047206A401CB1
:1035100020626D1EF6D570BD70B5044685690078D1
:10352000C00707D170BD6268A16820209047206A5B
:10353000401C20626D1EF6D570BD70B50C46054668
:10354000012A05D02878800600D5EA69002302E028
:10355000012305E05B1C934202D2E05C0028F9D114
:10356000A869E618C01AA861286AC0182862284607
:10357000FFF7BCFF04E06A682078A968641C9047E4
:10358000B442F8D32846FFF7C7FF70BDF7B5002552
:1035900075291068009914A611D0C046C0460028AD
:1035A00002DA404211A608E0009909688A0701D5AD
:1035B0000FA602E0490704D50EA6012501E0C0468A
:1035C000C046009F0024243704E000F04FFC303157
:1035D0003955641C0028F8D12B4632462146009804
:1035E00000F048FBFEBD0000000000002D000000C0
:1035F0002B0000002000000070B504460D46214657
:103600001068C046C0462188090502D50F4A7A4491
:1036100002E00E4A7A440E3223460021243305E0AC
:1036200006070009360F965D5E54491C0028F7D145
:1036300020780023000705D5702D03D0002901D084
:1036400002231132204600F015FB70BD740A000001
:10365000F3B50446002081B020622046E168884727
:1036600000287DD0252802D06268A16883E0454FFC
:1036700000257F442046E16888472028064608DB6D
:10368000312E06D2B81920380078002801D0054321
:10369000F0E7A80701D5042085430020E061074634
:1036A000A0612A2E0AD0304600F0CCFC002827D09A
:1036B000B8000019303E0090866119E00298BA0007
:1036C000121902C8916102902046E1688847012FD3
:1036D000064617D1E06900281FDA202085431CE048
:1036E00000980A2180694843009980193038886120
:1036F0002046E1688847064600F0A4FC0028EFD188
:10370000012F0AD02E2E08D12046E16888470646B0
:10371000202005437F1C022FC3DBA069002803DAA9
:103720004042A06101200543E80701D010208543F5
:10373000002E24D030464138192803D80120C00279
:1037400005432036204625603146029A1546FCF78F
:10375000DBFC00280CD0012807D0ED1DE80800E0B4
:103760000DE0C0000830029077E72D1D029574E748
:1037700062683046A1689047206A401C6CE7206A66
:10378000FEBD0000380A000070B5064600F06EFA73
:103790000468054630460A22002100F00BFB2C602D
:1037A00070BD70B5064600F061FA04680546304603
:1037B0000A22002100F0FEFA2C6070BD10B5024A0A
:1037C00000F030FB10BD0000EC010020401ECAB22A
:1037D0004178401C8A4202D00029F9D1002070476C
:1037E000034610B50B439B070FD1042A0DD308C81D
:1037F00010C9121FA342F8D018BA21BA884201D9C1
:10380000012010BD0020C04310BD002A03D0D30703
:1038100003D0521C07E0002010BD03780C78401C38
:10382000491C1B1B07D103780C78401C491C1B1B2F
:1038300001D1921EF1D1184610BD0000034670B5AB
:1038400002460B439B070FD10E4CE60100E008C275
:1038500008C91D1B9D433542F9D0D9B21170521CC5
:1038600000290DD01B0AF8E70B78491C1370521C75
:10387000002B05D00B78491C1370521C002BF3D180
:1038800070BD00000101010130B5441C03E0017866
:10389000401C00290DD08107F9D10B4BDD0104C874
:1038A000D11A91432940FAD0001B0A0603D0C01E4A
:1038B00030BD001B30BD0A0401D0801E30BD09029E
:1038C000FCD0401E30BD0000010101010346F0B5EF
:1038D0000B439B072DD1244DEF01042A29D308C89F
:1038E00010C95E1B9E43121F3E4017D0D8B2E1B2F2
:1038F000401A3106014310D198B2A1B2401A3104E6
:1039000001430AD118022102000A090A401A3102B1
:10391000014302D1180E210E401AF0BDA342DCD0A3
:1039200018BA21BA884201D90120F0BD0020C04355
:10393000F0BD002A01D10020F0BD03780C78401CB6
:10394000491C002B0DD0A3420BD1521E09D0037885
:103950000C78401C491C002B03D0A34201D1521EFD
:10396000EBD1181BF0BD000001010101421E53788C
:10397000521C002BFBD10B78491C1370521C002BDE
:10398000F9D17047F8B5042A2CD3830712D00B78ED
:10399000491C0370401C521E83070BD00B78491C36
:1039A0000370401C521E830704D00B78491C03701F
:1039B000401C521E8B079B0F05D0C91ADF00202325
:1039C000DE1B08C90AE0FCF7D3FBF8BD1D4608C999
:1039D000FD401C46B4402C4310C0121F042AF5D2EF
:1039E000F308C91A521EF0D40B78491C0370401C0E
:1039F000521EEAD40B78491C0370401C012AE4D4FF
:103A000009780170F8BD01E004C0091F0429FBD248
:103A10008B0701D50280801CC90700D00270704757
:103A200000290BD0C30702D00270401C491E022996
:103A300004D3830702D50280801C891EE3E700229D
:103A4000EEE70022DFE70000024670B50A43920766
:103A50002AD11E4DEE0104C808C9541B94433440BA
:103A600017D0D0B2D9B2401A2106014310D190B27A
:103A700099B2401A210401430AD110021902000A26
:103A8000090A401A2102014302D1100E190E401AF0
:103A900070BD9A42DFD010BA19BA884201D901200C
:103AA00070BD0020C04370BD02780B78401C491CDB
:103AB000002A09D09A4207D102780B78401C491C91
:103AC000002A01D09A42EFD0D01A70BD0101010145
:103AD0000378C2781946437812061B02194383788B
:103AE000C0781B04194311430902090A0006084360
:103AF0007047020A08704A70020C8A70020ECA707F
:103B00007047002203098B422CD3030A8B4211D346
:103B100000239C464EE003460B433CD4002243085E
:103B20008B4231D303098B421CD3030A8B4201D34E
:103B300094463FE0C3098B4201D3CB01C01A5241E6
:103B400083098B4201D38B01C01A524143098B4236
:103B500001D34B01C01A524103098B4201D30B011F
:103B6000C01A5241C3088B4201D3CB00C01A524144
:103B700083088B4201D38B00C01A524143088B4209
:103B800001D34B00C01A5241411A00D201465241A2
:103B9000104670475DE0CA0F00D04942031000D3C1
:103BA0004042534000229C4603098B422DD3030A16
:103BB0008B4212D3FC22890112BA030A8B420CD326
:103BC000890192118B4208D3890192118B4204D34F
:103BD00089013AD0921100E08909C3098B4201D3CF
:103BE000CB01C01A524183098B4201D38B01C01A09
:103BF000524143098B4201D34B01C01A5241030980
:103C00008B4201D30B01C01A5241C3088B4201D32E
:103C1000CB00C01A524183088B4201D38B00C01ADB
:103C20005241D9D243088B4201D34B00C01A5241B2
:103C3000411A00D20146634652415B10104601D33F
:103C40004042002B00D54942704763465B1000D3C9
:103C5000404201B50020C046C04602BD70477047D3
:103C600070470000004870471C0F00200048704754
:103C7000FC0E0020FFB504460D4681B024300090B4
:103C80002168880604D51022E0699143216000E094
:103C90000120A84201DD471B00E000270498A1692C
:103CA0007A191018081AA0612078C00602D420469C
:103CB000FFF71CFC002608E003986268A168805D9D
:103CC0009047206A401C761C206204988642F3DBF1
:103CD0002078C0060AD52046FFF708FC06E0626897
:103CE000A16830209047206A401C206238467F1E21
:103CF0000028F4DC07E000986268A168405D904706
:103D0000206A401C206228466D1E0028F3DC2046F5
:103D1000FFF702FC2078000602D5022005B0F0BDB6
:103D20000120FBE701694A1C02610878704700B571
:103D30008FB00291002105910549019379440391C7
:103D4000114604906846FFF783FC0FB000BD0000E9
:103D5000E5FFFFFF0A681070521C0A60704710B53B
:103D60004369002B02D0C046C04601E0FFF7E5FBE7
:103D7000012010BD1278014624310A7000224A70D9
:103D80000122ECE711680022D243E8E7084B70B546
:103D90000D467B44FFF7CBFF04462846FDF7A7FB03
:103DA000002802D00020C04370BD204670BD000036
:103DB0004FD7FFFFF7B50F460026009C2578641CFF
:103DC000002D05D0FFF758FB0068405DC007F5D116
:103DD0002B2D02D02D2D18D0641E3946029A204674
:103DE00000F05CF8002F04D03968A14201D100999D
:103DF00039607105022400290BDA4042002803DDF6
:103E0000FFF734FF0460A007FEBD012080020643D7
:103E1000E3E70028F8DAFFF729FF04600048FEBD59
:103E2000FFFFFF7FF8B515460E46040003D12C684E
:103E3000002C00D10CA4204600F094F8041920783E
:103E400000280ED027463146384600F07AF804198B
:103E50002078002802D000202070641C38462C6096
:103E6000F8BD0027FAE700000000000001468008C6
:103E7000081A02091018020A1018020C1018C008BB
:103E8000820012185200891A01E0401C0A390A29DE
:103E9000FBD2704700487047FC0E0020F7B515466E
:103EA00082B00027029C2078641C0197302802D041
:103EB000002D15D015E020780127641C782804D047
:103EC000582802D0002D09D00BE0002D01D0102D74
:103ED00007D1207800271025641C02E0082500E0A7
:103EE0000A250026009610E000990127694308186A
:103EF00029467143020C80B200908E183804864225
:103F000001D3012001902078641C294600F059F863
:103F10000028E9DA0398002805D0002F01D0641E9C
:103F200000E0029C04600198002806D0FFF79EFE86
:103F300002210160C81E05B0F0BD0099300408439D
:103F4000F9E730B503461D78002D03D00A4603E09B
:103F5000AC4201D1181A30BD1478521C002CF7D194
:103F60005B1CF0E730B503461D78002D08D00A46EB
:103F70001478521C002C03D0AC42F9D15B1CF3E73F
:103F8000181A30BD7546FFF785FFAE460500694635
:103F90005346C008C000854618B020B5FCF70EF99E
:103FA00060BC00274908B6460026C0C5C0C5C0C5CC
:103FB000C0C5C0C5C0C5C0C5C0C5403D49008D46CF
:103FC00070473A2800D23038202302469A43412ACB
:103FD00001D310463738884201D30020C0437047D0
:103FE00010B50446C046C0462046FCF7BAF810BDDE
:103FF00030B58C180278401C13071B0F01D10378D1
:10400000401C120906D10278401C03E00578401CD0
:104010000D70491C5B1EF9D101E00B70491C521E4A
:10402000FBD1A142E6D3002030BD30B47446641EFB
:104030002578641CAB4200D21D46635D5B00E3182B
:1040400030BC184730380A2801D2012070470020C0
:104050007047000010B500290AD00878002807D062
:1040600005487844FFF7F0FC002801D0002010BD7F
:104070000248784410BD00005A02000052020000BD
:1040800000010002800030313233343536373839A0
:104090004142434445464030580030313233343594
:1040A00036373839616263646566403078000400F1
:1040B00000080000000000000002000100001000E5
:1040C0004B2100004B4100004D41000041420000E7
:1040D0004442000053420000454300004D430000AD
:1040E00053430000444400005044000055504752E0
:1040F0004144450041544D4F444500004B450000AC
:104100005445000055450000444700004C4700005E
:104110004448000052480000444900004B49000058
:104120004C49000050490000524900005549000028
:10413000464C0000494D0000534D00004F50454E85
:10414000000000004D4E0000554E0000504F000092
:104150004350000055445000445000004C500000B3
:104160004E5000004F5000005050000052500000D0
:1041700053500000425200004552000046520000D9
:1041800050520000545200005652000044530000A8
:104190005053000053530000434F4E4E45435400CC
:1041A00049540000424F4F5400000000505400009A
:1041B000525400005354000053560000445700006E
:1041C0004657000047570000505700004458000071
:1041D0004558000052532D3432322F343835000008
:1041E00052532D3233322F54544C0000203E205372
:1041F000454743503A46575F5550444154453A4627
:1042000041494C4544202D20496E76616C696420FB
:104210006669726D776172652073697A653A2025E7
:104220006420627974657320284669726D776172C3
:10423000652073697A65206D7573742062652077D7
:10424000697468696E202564206279746573290D2C
:104250000A000000203E2053454743503A46575F2E
:104260005550444154453A4641494C4544202D203F
:10427000506C656173652074727920746F204657A5
:104280002055706461746520617420415050424F24
:104290004F54206D6F64650D0A000000CC43000090
:1042A00000000020F0010000F03F0000DC440000AE
:1042B000F001002070190000EC0000001001000067
:1042C00043000000F8FFFFFF0040404040404040F6
:1042D00040404141414141404040404040404040D9
:1042E000404040404040404040050202020202027D
:1042F00002020202020202020220202020202020CC
:1043000020202002020202020202909090909090DF
:10431000101010101010101010101010101010109D
:104320001010101002020202020288888888888811
:1043300008080808080808080808080808080808FD
:104340000808080802020202400000000000000005
:10435000000000000000000000000000000000005D
:10436000000000000000000000000000000000004D
:10437000000000000000000000000000000000003D
:10438000000000000000000000000000000000002D
:10439000000000000000000000000000000000001D
:1043A000000000000000000000000000000000000D
:1043B00000000000000000000000000000000000FD
:1043C000000000000000000000000000A10217C073
:1043D0003B0101573735303000B10D33B30D33B5E4
:1043E0000D33B70D33B90D43BD0D041D800040558D
:1043F000FFFFFFFF420533651333E51303193D1437
:10440000071557495A6E657433A441333C413398BC
:104410004133EC4033F44073544133DC4033884142
:1044200033444133344133644133E4403350413306
:104430004C4133084133C440331C4133FC403328E2
:104440004133204133384133C441338C413324411B
:1044500033684133CC4133584133184133BC413385
:104460001041335C41336C4133144133744133D0D8
:104470004033804133D44033304133A04133AC41E9
:1044800033904143E84032413394413360413370CB
:1044900041330C4133784133C04133C84033C841C4
:1044A00033B84133D04133B04133484133B4413361
:1044B0007C4133D84033C040330441332C4133CCAA
:1044C0004033E0400317844133E0410314D44157A3
:0C44D00002020001010142444244524239
:020000040000FA
:107D000010B5F9F7D1FB10BD0000000010B5F9F770
:107D1000CCFB10BD10B5F9F7C9FB10BD10B5F9F7D4
:107D2000C6FB10BD10B5F9F7C3FB10BD10B5F9F7D0
:107D3000C0FB10BD10B5F9F7BDFB10BD10B5F9F7CC
:107D4000BAFB10BD10B5F9F7B7FB10BD10B5F9F7C8
:107D5000B4FB10BD10B5F9F7B1FB10BD10B5F9F7C4
:107D6000AEFB10BD10B5F9F7ABFB10BD10B5F9F7C0
:107D7000A8FB10BD10B5F9F7A5FB10BD10B5F9F7BC
:107D8000A2FB10BD10B5F9F79FFB10BD10B5F9F7B8
:107D90009CFB10BD10B5F9F799FB10BD10B5F9F7B4
:107DA00096FB10BD10B5F9F793FB10BD10B5F9F7B0
:107DB00090FB10BD10B5F9F78DFB10BD10B5F9F7AC
:107DC0008AFB10BD10B5F9F787FB10BD10B5F9F7A8
:107DD00084FB10BD10B5F9F781FB10BD10B5F9F7A4
:107DE0007EFB10BD10B5F9F77BFB10BD10B5F9F7A0
:047DF00078FB10BD4F
:04000005000000A94E
:00000001FF
:020000040000FA
:10700000C83A0020ED710000017D0000F77100001A
:107010000000000000000000000000000000000070
:107020000000000000000000000000000D7D0000D6
:107030000000000000000000157D00001D7D000024
:10704000257D00002D7D0000357D00003D7D000088
:10705000457D00004D7D0000557D00005D7D0000F8
:10706000657D00006D7D0000757D00007D7D000068
:10707000857D00008D7D0000957D00009D7D0000D8
:10708000A57D0000AD7D0000B57D0000BD7D000048
:10709000C57D0000CD7D0000D57D0000DD7D0000B8
:1070A000E57D0000ED7D000000F002F800F057F8EB
:1070B0000CA030C8083824182D18A246671EAB460D
:1070C00054465D46AC4201D100F049F87E460F3E81
:1070D0000FCCB6460126334200D0FB1AA246AB467F
:1070E0003343184700B4000020B4000000230024FC
:1070F00000250026103A01D378C1FBD8520700D3EF
:1071000030C100D50B60704710B5642902D109F079
:1071100027FB10BD752902D109F022FB10BD78298B
:1071200002D109F053FB10BD632902D10AF098FA8D
:1071300010BD732902D10AF09BFA10BD002010BDCA
:107140001FB509F063FC0AF0FBF9040000200021E0
:107150000AF004FC401C60601FBD10B510BD0AF0B1
:1071600087FB1146FFF7ECFF03F055FA0AF0AEFB80
:1071700003B4FFF7F2FF03BC00F0ACFD30B40C49E0
:107180000C684A6823681068C0181060241D121D1E
:107190008C4207D28A4208D20C604A6030BC400060
:1071A000400870470C00DC3CF6E70A00DC3AF3E7E5
:1071B000602E002070B505460C46164602E00FCC46
:1071C0000FC5103E102EFAD2082E02D303CC03C5F1
:1071D000083E042E07D301CC01C5361F03E02178F9
:1071E0002970641C6D1C761EF9D270BD074880475B
:1071F00007480047FEE7FEE7FEE7FEE7FEE7FEE79B
:1072000004480549054A064B7047000037720000E4
:10721000A9700000C82E0020C83A0020C832002003
:10722000C8320020364800687047354840687047CB
:107230003448006A704710B53348816B334A116196
:10724000C16B304841600021016241698907CA0F62
:10725000012191404269D207D20F9140CAB24169DF
:1072600040698904890E51438002294A800E5043A7
:1072700009F0A5FD2249086010BDF8B5254F01268B
:10728000204D01280FD000202862214C10462146B5
:1072900009F095FDC0B2012808D8EE616F610121A7
:1072A0000A46134619E02E620C46EFE70021E96119
:1072B000FF2101318006800A084368616869800700
:1072C000C00F86406869C007C00F86406869F2B287
:1072D0008004810E68698002830E2046084C514369
:1072E0006060584309F06BFD2060F8BD30B4064B78
:1072F0009C6B064D2C61DB6B024C636030BCBCE7C1
:10730000000000200010004180FD03000012004139
:1073100000127A000001020041210906002801D074
:10732000032000E001200860704741210906486001
:1073300070470120412109068860704741200006FE
:10734000C06880B270474120000600690006000E48
:1073500000D0012070470020DEE70000204A204BCB
:1073600001218032984201D1116070471C4B2033BB
:10737000984201D1116270471A4A1A4B80329842E2
:10738000F2D0184B20339842F4D0704782688023A3
:107390009A4382600A68026082684B689B011343CB
:1073A0008A6892001A43CB6809695B00134319434A
:1073B000EF2211408160704720220129816802D0AC
:1073C0009143816070471143FBE70121C160704721
:1073D0004069C0B270478168802211438160704764
:1073E0000010004000200040F0B5212200231026AC
:1073F0005206904201D18F4A08E043221206904281
:1074000002D18C4A403201E08A4A8032012425466A
:107410000F689D402F40AF4243D10F79012F0DD00F
:1074200045614D79AD070DD59C001559AD08AD00EE
:107430001551155902273D4315510BE007692F439C
:107440000761EEE79D005759BF08BF0057515759D4
:10745000274357514C79640704D59C0015590427DC
:107460003D4303E09C0015590427BD4315514C7959
:10747000A40604D59C00155920273D4303E09C0039
:1074800015592027BD4315514C79640604D59C003D
:10749000155940273D4303E09C0015594027BD4343
:1074A00015515B1CB342B1D3F0BD634901600021AB
:1074B00001716221417170470246126800200A4240
:1074C00000D0012070470246526800200A4200D0D6
:1074D000012070470A06920D012312189B02D21850
:1074E00011600A0A920010185A0080180160704753
:1074F00010B50B069B0D0124CA431B18A4021B19CF
:107500001A60090A8900081861004018026010BD5D
:10751000012A03D0426B0A4342637047026B0A435D
:1075200002637047444981637047F0B50126434DBB
:10753000002334469C400C420ED0002810D0012875
:1075400011D03E4C9F0080343C192768BF08BF0013
:1075500027602768174327605B1C102BE9DBF0BD11
:107560009C006419F1E79C006419276CBF08BF00F8
:107570002764276C17432764EEE77CB504461E4654
:107580000D466846FFF791FF68460095027169460F
:107590002046FFF729FF21204006844201D1002028
:1075A00006E043200006844201D1012000E00220D1
:1075B00032462946FFF7B9FF7CBD7CB50446164626
:1075C0000D466846FFF771FF002069460095087177
:1075D000012048712046FFF707FF206A28432062F8
:1075E000A06A2843A062324629462046FFF790FF52
:1075F00021204006124E844206D100200122294655
:10760000FFF793FF802012E043200006844207D159
:10761000012002462946FFF788FFFF20013006E0DF
:10762000022001222946FFF780FF0120400230603E
:107630007CBD000000300041FFFF00000020004141
:1076400000E100E0F8B50446006B0E46400840003B
:107650002063FFF7EDFD504F0125002846D03D6126
:10766000FFF7E0FD7A692946914009F0A8FB07463B
:107670003068000109F03EFF0090384609F03AFFFB
:10768000009909F043FE074609F0F0FE009009F06A
:1076900031FF39460AF0BEF9062109F02FFF09F043
:1076A0000BFE00223D4B09F0B3FD09F0E1FD014660
:1076B00000986062A162E06AEE218843B188F28896
:1076C000114332890243E06A11430843E062206BB0
:1076D0003349B2890840718911430143206B084343
:1076E0002063206B284320630020F8BD022038610E
:1076F0007869294681402B48B7E7006880B2704717
:107700000246526800200A4200D001207047002A39
:10771000826B01D00A4300E08A43826370470246CD
:10772000126C00200A4200D001207047426C0A43CC
:107730004264704710B504461B48016B02290AD009
:10774000006B032807D0FFF76DFD214609F037FBDA
:107750001649086110BDFFF768FDF6E710B5FFF7A1
:10776000E9FF12498868032280088000104388607E
:10777000002010BD0D494A68D207FCD1086070474F
:10778000016082691207FCD40846704700B50346C1
:10779000FFF7F0FF184600BD401100410000E03F38
:1077A000FE3CFFFF00127A00001000410060004024
:1077B000007870470170704730B5002405E00D195E
:1077C000ADB2455D1555641CA4B29C42F7D330BDE3
:1077D00070B5002405E00E19155DB6B28555641C20
:1077E000A4B29C42F7D370BD70B514000FD01A4AF2
:1077F00083049E18F268400795B2184AC00A1043E5
:107800000A4623462946FFF7E3FF2819F06070BDBA
:1078100070B514000FD0104A83049E18B26A400756
:1078200095B20F4AC00A10430A4623462946FFF77D
:10783000C3FF2819B06270BD10B500290BD0064AED
:1078400083049B189A6A4007054CC00A51182043CC
:1078500089B20818986210BD000201460000024675
:1078600000000346F8B5017840780A06170F0A07AA
:107870000121120F0D4695400206160F0007000F5A
:107880000C4684408248002F0560017105D0012F0D
:107890000CD0022F13D07FA026E021207C49400687
:1078A000FFF7A2FD2120A9B2400610E0432078494D
:1078B0000006FFF799FD4320A9B2000607E011205A
:1078C00073498006FFF790FD1120A9B28006FFF7EB
:1078D00001FE6F48002104600171002E08D0012EC6
:1078E0000FD0022E16D072A008F0A8FE0120F8BD1D
:1078F000212067494006FFF777FD2120A1B240060D
:1079000010E0432062490006FFF76EFD4320A1B25C
:10791000000607E011205E498006FFF765FD112093
:10792000A1B28006FFF7E4FDA9B238460122FFF7B5
:10793000FCFDA1B230460122FFF7F7FD0020F8BDA3
:1079400010B5027810061307000F1B0F01229A4092
:1079500000280BD0012810D0022806D11120800663
:10796000012906D091B2FFF7C3FD10BD21204006CA
:10797000F6E791B2FFF7AEFD10BD43200006EFE73A
:10798000407802060307120F1B0F01209840002ABF
:1079900009D0012A0CD0022A04D111229206012911
:1079A00004D01061704721225206F8E750617047F9
:1079B00043221206F3E7407801060207090F120F6F
:1079C00001209040002904D0012905D002290AD0C5
:1079D0000CE02121490601E0432109060968014222
:1079E00004D00120704711218906F7E70020704775
:1079F00010B504460121FFF7A3FF01212046FFF740
:107A0000BFFF00212046FFF7BBFF00212046FFF704
:107A100097FF10BD10B504460021FFF791FF00212C
:107A20002046FFF7ADFF01212046FFF789FF012126
:107A30002046FFF7A5FF10BD70B50D460646002491
:107A40002846A040000601D5012100E00021304673
:107A5000FFF796FF01213046FFF772FF0021304605
:107A6000FFF76EFF641C082CEADB01213046FFF7AC
:107A700087FF01213046FFF763FF3046FFF79BFF8A
:107A8000044600213046FFF75BFF204670BD000032
:107A90000800002053434C2070696E20506F7274B0
:107AA000206E756D626572206572726F720D0A00CC
:107AB0005344412070696E20506F7274206E756D52
:107AC000626572206572726F720D0A0070B5744C37
:107AD00005462088286161882846FFF7FBFC0120C5
:107AE00002F091FD61882846FFF702FD012002F0B7
:107AF0008AFD70BDF8B507460020694D0446460072
:107B000069883846FFF7E6FC012002F07CFD6988B1
:107B10003846FFF7EDFC012002F075FD2988384654
:107B2000FFF7CAFC3043641C102CE8D3F8BD70B5D5
:107B30005B4C054620886861012002F064FD618885
:107B40002846FFF7C7FC012002F05DFD618828464A
:107B5000FFF7CEFC012002F056FD70BDF8B50746D8
:107B600016462020801B81400C464D4D18E0298888
:107B7000002C384602DAFFF7ADFC01E0FFF7B8FC55
:107B8000012002F040FD69883846FFF7A3FC012080
:107B900002F039FD69883846FFF7AAFC6400761EBA
:107BA000002EE4D1F8BD70B50C46164600210546FE
:107BB0002022C943FFF7D2FF042205212846FFF700
:107BC000CDFF3748052241682846FFF7C7FF052249
:107BD00021462846FFF7C2FF022211462846FFF73A
:107BE000BDFF102231462846FFF7B8FF2846FFF7B1
:107BF0006DFF70BDF8B5002543273F060024002126
:107C00002022C9433846FFF7A9FF0422062138463F
:107C1000FFF7A4FF052221463846FFF79FFF052204
:107C200001213846FFF79AFF3846FFF780FF3846B4
:107C3000FFF760FF06463846FFF748FF002E02D0E8
:107C40001848864209D1641C082CD8DD6D1CEDB2A1
:107C500015A008F0F3FC022DD0D32046F8BD7CB56A
:107C6000054614460E466846FFF71FFC3046204383
:107C700000900120694608712846FFF7B5FB0122F4
:107C800021461046FFF751FC012231461046FFF70E
:107C90004CFC034D6E802C80FFF7ACFF68607CBD10
:107CA00048000020FFFF00000D0A70687920696419
:107CB00020646574656374206572726F7221210D92
:107CC0000A00000010B5C0B2FFF760FD10BD002033
:107CD000C0437047FEE7704710B509F031FC001D46
:107CE00010BD00BF799C000010B5024A09F010FDDC
:107CF00010BD00005403002070477047704700001B
:107D000010B501F0C5FF10BDFF00000010B501F077
:107D1000C0FF10BD10B501F0BDFF10BD10B501F0E2
:107D2000BAFF10BD10B501F0BAFF10BD10B501F0DB
:107D3000B7FF10BD10B501F0B4FF10BD10B501F0D4
:107D4000B5FF10BD10B501F0B6FF10BD10B501F0C4
:107D5000B3FF10BD10B501F0B0FF10BD10B501F0BC
:107D6000ADFF10BD10B501F0BDFF10BD10B501F0A5
:107D7000CCFF10BD10B501F0E2FF10BD10B501F051
:107D8000DFFF10BD10B501F0DCFF10BD10B501F034
:107D9000DCFF10BD10B501F0D9FF10BD10B501F02A
:107DA000D6FF10BD10B501F0D3FF10BD10B501F026
:107DB000D0FF10BD10B501F0CDFF10BD10B501F022
:107DC000CAFF10BD10B501F0C7FF10BD10B501F01E
:107DD000C4FF10BD10B501F0C1FF10BD10B501F01A
:107DE000BEFF10BD10B501F0BBFF10BD10B501F016
:107DF000B8FF10BD70B50446082802D90020C04362
:107E000070BDFA48A604301805461021FFF7D2FCD1
:107E10002846FFF7CDFC0028FAD1F4481F2118307E
:107E20003018FFF7C7FCF24801218288A1408A433D
:107E30008280F04A002061005052ED49891D0855AA
:107E4000EA48203034182046FFF7B2FC0028FAD167
:107E5000012070BDF8B51C4616460F460546082899
:107E600002D90020C043F8BD012F06D0022F04D054
:107E7000042F02D00420C043F8BD6007810FDE4804
:107E8000FAD1002C0CD0012F02D0022F08D103E030
:107E900021210C42F0D003E0A10601D52106EBD54B
:107EA0002846FFF7A7FF21090901D0483943AF044D
:107EB00010383818FFF77EFC002E0AD1CC48CF4A84
:107EC0000688711C89B20180914202D10321890385
:107ED0000180C648F03038184661C448012138187E
:107EE0000646FFF767FC3046FFF762FC0028FAD130
:107EF000BF48E107C90F4288A940114341800121D1
:107F00008288A9408A438280BA4A00206900505280
:107F1000B749891D4855B54820303C182046FFF721
:107F200047FC0028FAD068B2F8BD70B506460828AC
:107F300002D90020C04370BDAC48B40410382018EA
:107F4000FFF736FC0007000F012802D00420C043D1
:107F500070BDA648203020180546FFF729FC1328DD
:107F600002D00220C04370BDA04802212018044660
:107F7000FFF720FC2046FFF71BFC0028FAD128461B
:107F8000FFF716FC142805D03046FFF733FF032017
:107F9000C04370BD012070BDF7B50D4607460828E7
:107FA00002D90020C043FEBD9048BC041038201800
:107FB000FFF7FEFB0007000F012802D00420C0439A
:107FC000FEBD8A48203020180646FFF7F1FB132833
:107FD00002D00220C043FEBD29786A7808028018CA
:107FE000AA7800028018EA7800028018421C32D079
:107FF000002830D00298002830D081482018FFF7A0
:10800000D9FB7F486978401E2018FFF7D3FB7C48D6
:10801000A978801E2018FFF7CDFB7948E978C01EAB
:108020002018FFF7C7FB76490298273961180862C4
:108030006E48042120180546FFF7BCFB2846FFF7D1
:10804000B7FB0028FAD16A4901204988B8400842A4
:108050001CD00020FEBD0B20C043FEBD0A20C04343
:10806000FEBD2846FFF7A4FB000708D55F4808219E
:1080700018302018FFF79EFB0C20C043FEBD304691
:10808000FFF796FB002804D1001FFEBD57481030B3
:1080900025183046FFF78CFB1728E2D10120FEBDE2
:1080A00070B50646082802D90020C04370BD4F486D
:1080B000B50410382818FFF77BFB0007000F0128D4
:1080C00002D00420C04370BD484808212818044647
:1080D000FFF770FB2046FFF76BFB0028FAD14449FD
:1080E00001208A88B04082438A80498808420CD0A7
:1080F000002070BD2046FFF75BFB00070BD5304624
:10810000FFF778FE0C20C04370BD384810302C18A3
:10811000364820302D182846FFF74AFB0028E9D1C1
:10812000012070BDF7B582B002981446082803D923
:108130000020C04305B0F0BD86042C48103830182C
:10814000FFF736FB0007000F012802D00420C043D0
:10815000F0E7002C0CD02548203030180190FFF7B4
:1081600027FB172807D01C2805D00620C043E1E7CD
:108170000D20C043DEE7029801251D4F8540B888D9
:10818000054211D0194810303018FFF711FBC00616
:10819000C00EC10621D51548102118303018FFF740
:1081A00009FBB888A843B8801548D930301800902A
:1081B000FFF7FEFA8006000C844200D904460098BE
:1081C000406887B20198FFF7F3FA17281AD01C28E5
:1081D00018D00298FFF70EFEC7E7000718D50298DF
:1081E000FFF708FE0C20C043A4E700001000014682
:1081F0001000002058030020FAFFFFFFF0FF0000EE
:1082000027010146FE484088054203D0BC4201D9FF
:1082100000208FE7BC42D2D8224603990298FFF78C
:10822000E3FAF848202130180646FFF7C3FA304633
:10823000FFF7BEFA0028FAD1F14881880D43858006
:10824000204677E7F7B582B002981446082802D98D
:108250000020C0436EE78704EA4810383818FFF75B
:10826000A7FA0007000F012802D00420C04361E7ED
:10827000002C19D0E4483818FFF79AFA8006000C51
:10828000A04200D20446DF48203038180090DE4873
:1082900020383E18706A85B20098FFF789FA1728CF
:1082A00015D01C2803D00CE00D20C04342E7002D60
:1082B0001AD13046FFF77CFA7168800289B2884291
:1082C00005D10298FFF796FD0620C04332E70299D8
:1082D00001208840CA494988084203D0002D03D1B3
:1082E000002027E7002DD5D0A54200D22C462246FB
:1082F00003990298FFF78CFAC248402138180546C6
:10830000FFF758FA2846FFF753FA0028FAD120461B
:1083100010E7FFB583B003981E461546082803D919
:108320000020C04307B0F0BD8404B64810382018C0
:10833000FFF73EFA0007000F022804D0042802D0FD
:108340000420C043EEE7002D1DD030787178000284
:108350004018B17800024018F1780002C84202D1FA
:108360000B20C043DEE70C9800280FD0A548203032
:1083700020180746FFF71CFA42280AD0222808D006
:108380000620C043CEE70D20C043CBE70A20C04300
:10839000C8E79D483178F9382018FFF70BFA9A485A
:1083A0007178FA382018FFF705FA9748B178FB384A
:1083B0002018FFF7FFF99448F178FC382018FFF7F0
:1083C000F9F990490C98F031611808628E4820380C
:1083D00020180190FFF7ECF98006000C854200D9C7
:1083E000054603990120884000900198406886B2B4
:1083F0003846FFF7DDF9002808D081490098498800
:10840000084206D0B54204D900208BE70320C043C0
:1084100088E7B542E9D82A4604990398FFF7E4F9BA
:108420007848202120180746FFF7C4F9754818300E
:1084300026183846FFF7BCF90028FAD171481030E9
:1084400024182046FFF7B4F9C006C00EC10605D5B2
:1084500030461021FFF7AEF9284663E70007F0D554
:1084600030460821FFF7A6F90C20C0435AE7FFB5B4
:10847000002485B00646082802D9601E09B0F0BD68
:108480006048B50410382818FFF792F904900007E7
:10849000000F022804D0042802D00420C043EDE7D6
:1084A0000798002805D059487700C05B002803D002
:1084B00022E00D20C043E1E75348203828180390FC
:1084C0005048203028180125B54002900398406A92
:1084D00084B20298FFF76CF9002806D0484840881B
:1084E000054207D0002C03D006E00320C043C5E7B7
