:020000040000FA
:10700000C83A0020ED710000017D0000F77100001A
:107010000000000000000000000000000000000070
:107020000000000000000000000000000D7D0000D6
:107030000000000000000000157D00001D7D000024
:10704000257D00002D7D0000357D00003D7D000088
:10705000457D00004D7D0000557D00005D7D0000F8
:10706000657D00006D7D0000757D00007D7D000068
:10707000857D00008D7D0000957D00009D7D0000D8
:10708000A57D0000AD7D0000B57D0000BD7D000048
:10709000C57D0000CD7D0000D57D0000DD7D0000B8
:1070A000E57D0000ED7D000000F002F800F057F8EB
:1070B0000CA030C8083824182D18A246671EAB460D
:1070C00054465D46AC4201D100F049F87E460F3E81
:1070D0000FCCB6460126334200D0FB1AA246AB467F
:1070E0003343184700B4000020B4000000230024FC
:1070F00000250026103A01D378C1FBD8520700D3EF
:1071000030C100D50B60704710B5642902D109F079
:1071100027FB10BD752902D109F022FB10BD78298B
:1071200002D109F053FB10BD632902D10AF098FA8D
:1071300010BD732902D10AF09BFA10BD002010BDCA
:107140001FB509F063FC0AF0FBF9040000200021E0
:107150000AF004FC401C60601FBD10B510BD0AF0B1
:1071600087FB1146FFF7ECFF03F055FA0AF0AEFB80
:1071700003B4FFF7F2FF03BC00F0ACFD30B40C49E0
:107180000C684A6823681068C0181060241D121D1E
:107190008C4207D28A4208D20C604A6030BC400060
:1071A000400870470C00DC3CF6E70A00DC3AF3E7E5
:1071B000602E002070B505460C46164602E00FCC46
:1071C0000FC5103E102EFAD2082E02D303CC03C5F1
:1071D000083E042E07D301CC01C5361F03E02178F9
:1071E0002970641C6D1C761EF9D270BD074880475B
:1071F00007480047FEE7FEE7FEE7FEE7FEE7FEE79B
:1072000004480549054A064B7047000037720000E4
:10721000A9700000C82E0020C83A0020C832002003
:10722000C8320020364800687047354840687047CB
:107230003448006A704710B53348816B334A116196
:10724000C16B304841600021016241698907CA0F62
:10725000012191404269D207D20F9140CAB24169DF
:1072600040698904890E51438002294A800E5043A7
:1072700009F0A5FD2249086010BDF8B5254F01268B
:10728000204D01280FD000202862214C10462146B5
:1072900009F095FDC0B2012808D8EE616F610121A7
:1072A0000A46134619E02E620C46EFE70021E96119
:1072B000FF2101318006800A084368616869800700
:1072C000C00F86406869C007C00F86406869F2B287
:1072D0008004810E68698002830E2046084C514369
:1072E0006060584309F06BFD2060F8BD30B4064B78
:1072F0009C6B064D2C61DB6B024C636030BCBCE7C1
:10730000000000200010004180FD03000012004139
:1073100000127A000001020041210906002801D074
:10732000032000E001200860704741210906486001
:1073300070470120412109068860704741200006FE
:10734000C06880B270474120000600690006000E48
:1073500000D0012070470020DEE70000204A204BCB
:1073600001218032984201D1116070471C4B2033BB
:10737000984201D1116270471A4A1A4B80329842E2
:10738000F2D0184B20339842F4D0704782688023A3
:107390009A4382600A68026082684B689B011343CB
:1073A0008A6892001A43CB6809695B00134319434A
:1073B000EF2211408160704720220129816802D0AC
:1073C0009143816070471143FBE70121C160704721
:1073D0004069C0B270478168802211438160704764
:1073E0000010004000200040F0B5212200231026AC
:1073F0005206904201D18F4A08E043221206904281
:1074000002D18C4A403201E08A4A8032012425466A
:107410000F689D402F40AF4243D10F79012F0DD00F
:1074200045614D79AD070DD59C001559AD08AD00EE
:107430001551155902273D4315510BE007692F439C
:107440000761EEE79D005759BF08BF0057515759D4
:10745000274357514C79640704D59C0015590427DC
:107460003D4303E09C0015590427BD4315514C7959
:10747000A40604D59C00155920273D4303E09C0039
:1074800015592027BD4315514C79640604D59C003D
:10749000155940273D4303E09C0015594027BD4343
:1074A00015515B1CB342B1D3F0BD634901600021AB
:1074B00001716221417170470246126800200A4240
:1074C00000D0012070470246526800200A4200D0D6
:1074D000012070470A06920D012312189B02D21850
:1074E00011600A0A920010185A0080180160704753
:1074F00010B50B069B0D0124CA431B18A4021B19CF
:107500001A60090A8900081861004018026010BD5D
:10751000012A03D0426B0A4342637047026B0A435D
:1075200002637047444981637047F0B50126434DBB
:10753000002334469C400C420ED0002810D0012875
:1075400011D03E4C9F0080343C192768BF08BF0013
:1075500027602768174327605B1C102BE9DBF0BD11
:107560009C006419F1E79C006419276CBF08BF00F8
:107570002764276C17432764EEE77CB504461E4654
:107580000D466846FFF791FF68460095027169460F
:107590002046FFF729FF21204006844201D1002028
:1075A00006E043200006844201D1012000E00220D1
:1075B00032462946FFF7B9FF7CBD7CB50446164626
:1075C0000D466846FFF771FF002069460095087177
:1075D000012048712046FFF707FF206A28432062F8
:1075E000A06A2843A062324629462046FFF790FF52
:1075F00021204006124E844206D100200122294655
:10760000FFF793FF802012E043200006844207D159
:10761000012002462946FFF788FFFF20013006E0DF
:10762000022001222946FFF780FF0120400230603E
:107630007CBD000000300041FFFF00000020004141
:1076400000E100E0F8B50446006B0E46400840003B
:107650002063FFF7EDFD504F0125002846D03D6126
:10766000FFF7E0FD7A692946914009F0A8FB07463B
:107670003068000109F03EFF0090384609F03AFFFB
:10768000009909F043FE074609F0F0FE009009F06A
:1076900031FF39460AF0BEF9062109F02FFF09F043
:1076A0000BFE00223D4B09F0B3FD09F0E1FD014660
:1076B00000986062A162E06AEE218843B188F28896
:1076C000114332890243E06A11430843E062206BB0
:1076D0003349B2890840718911430143206B084343
:1076E0002063206B284320630020F8BD022038610E
:1076F0007869294681402B48B7E7006880B2704717
:107700000246526800200A4200D001207047002A39
:10771000826B01D00A4300E08A43826370470246CD
:10772000126C00200A4200D001207047426C0A43CC
:107730004264704710B504461B48016B02290AD009
:10774000006B032807D0FFF76DFD214609F037FBDA
:107750001649086110BDFFF768FDF6E710B5FFF7A1
:10776000E9FF12498868032280088000104388607E
:10777000002010BD0D494A68D207FCD1086070474F
:10778000016082691207FCD40846704700B50346C1
:10779000FFF7F0FF184600BD401100410000E03F38
:1077A000FE3CFFFF00127A00001000410060004024
:1077B000007870470170704730B5002405E00D195E
:1077C000ADB2455D1555641CA4B29C42F7D330BDE3
:1077D00070B5002405E00E19155DB6B28555641C20
:1077E000A4B29C42F7D370BD70B514000FD01A4AF2
:1077F00083049E18F268400795B2184AC00A1043E5
:107800000A4623462946FFF7E3FF2819F06070BDBA
:1078100070B514000FD0104A83049E18B26A400756
:1078200095B20F4AC00A10430A4623462946FFF77D
:10783000C3FF2819B06270BD10B500290BD0064AED
:1078400083049B189A6A4007054CC00A51182043CC
:1078500089B20818986210BD000201460000024675
:1078600000000346F8B5017840780A06170F0A07AA
:107870000121120F0D4695400206160F0007000F5A
:107880000C4684408248002F0560017105D0012F0D
:107890000CD0022F13D07FA026E021207C49400687
:1078A000FFF7A2FD2120A9B2400610E0432078494D
:1078B0000006FFF799FD4320A9B2000607E011205A
:1078C00073498006FFF790FD1120A9B28006FFF7EB
:1078D00001FE6F48002104600171002E08D0012EC6
:1078E0000FD0022E16D072A008F0A8FE0120F8BD1D
:1078F000212067494006FFF777FD2120A1B240060D
:1079000010E0432062490006FFF76EFD4320A1B25C
:10791000000607E011205E498006FFF765FD112093
:10792000A1B28006FFF7E4FDA9B238460122FFF7B5
:10793000FCFDA1B230460122FFF7F7FD0020F8BDA3
:1079400010B5027810061307000F1B0F01229A4092
:1079500000280BD0012810D0022806D11120800663
:10796000012906D091B2FFF7C3FD10BD21204006CA
:10797000F6E791B2FFF7AEFD10BD43200006EFE73A
:10798000407802060307120F1B0F01209840002ABF
:1079900009D0012A0CD0022A04D111229206012911
:1079A00004D01061704721225206F8E750617047F9
:1079B00043221206F3E7407801060207090F120F6F
:1079C00001209040002904D0012905D002290AD0C5
:1079D0000CE02121490601E0432109060968014222
:1079E00004D00120704711218906F7E70020704775
:1079F00010B504460121FFF7A3FF01212046FFF740
:107A0000BFFF00212046FFF7BBFF00212046FFF704
:107A100097FF10BD10B504460021FFF791FF00212C
:107A20002046FFF7ADFF01212046FFF789FF012126
:107A30002046FFF7A5FF10BD70B50D460646002491
:107A40002846A040000601D5012100E00021304673
:107A5000FFF796FF01213046FFF772FF0021304605
:107A6000FFF76EFF641C082CEADB01213046FFF7AC
:107A700087FF01213046FFF763FF3046FFF79BFF8A
:107A8000044600213046FFF75BFF204670BD000032
:107A90000800002053434C2070696E20506F7274B0
:107AA000206E756D626572206572726F720D0A00CC
:107AB0005344412070696E20506F7274206E756D52
:107AC000626572206572726F720D0A0070B5744C37
:107AD00005462088286161882846FFF7FBFC0120C5
:107AE00002F091FD61882846FFF702FD012002F0B7
:107AF0008AFD70BDF8B507460020694D0446460072
:107B000069883846FFF7E6FC012002F07CFD6988B1
:107B10003846FFF7EDFC012002F075FD2988384654
:107B2000FFF7CAFC3043641C102CE8D3F8BD70B5D5
:107B30005B4C054620886861012002F064FD618885
:107B40002846FFF7C7FC012002F05DFD618828464A
:107B5000FFF7CEFC012002F056FD70BDF8B50746D8
:107B600016462020801B81400C464D4D18E0298888
:107B7000002C384602DAFFF7ADFC01E0FFF7B8FC55
:107B8000012002F040FD69883846FFF7A3FC012080
:107B900002F039FD69883846FFF7AAFC6400761EBA
:107BA000002EE4D1F8BD70B50C46164600210546FE
:107BB0002022C943FFF7D2FF042205212846FFF700
:107BC000CDFF3748052241682846FFF7C7FF052249
:107BD00021462846FFF7C2FF022211462846FFF73A
:107BE000BDFF102231462846FFF7B8FF2846FFF7B1
:107BF0006DFF70BDF8B5002543273F060024002126
:107C00002022C9433846FFF7A9FF0422062138463F
:107C1000FFF7A4FF052221463846FFF79FFF052204
:107C200001213846FFF79AFF3846FFF780FF3846B4
:107C3000FFF760FF06463846FFF748FF002E02D0E8
:107C40001848864209D1641C082CD8DD6D1CEDB2A1
:107C500015A008F0F3FC022DD0D32046F8BD7CB56A
:107C6000054614460E466846FFF71FFC3046204383
:107C700000900120694608712846FFF7B5FB0122F4
:107C800021461046FFF751FC012231461046FFF70E
:107C90004CFC034D6E802C80FFF7ACFF68607CBD10
:107CA00048000020FFFF00000D0A70687920696419
:107CB00020646574656374206572726F7221210D92
:107CC0000A00000010B5C0B2FFF760FD10BD002033
:107CD000C0437047FEE7704710B509F031FC001D46
:107CE00010BD00BF799C000010B5024A09F010FDDC
:107CF00010BD00005403002070477047704700001B
:107D000010B501F0C5FF10BDFF00000010B501F077
:107D1000C0FF10BD10B501F0BDFF10BD10B501F0E2
:107D2000BAFF10BD10B501F0BAFF10BD10B501F0DB
:107D3000B7FF10BD10B501F0B4FF10BD10B501F0D4
:107D4000B5FF10BD10B501F0B6FF10BD10B501F0C4
:107D5000B3FF10BD10B501F0B0FF10BD10B501F0BC
:107D6000ADFF10BD10B501F0BDFF10BD10B501F0A5
:107D7000CCFF10BD10B501F0E2FF10BD10B501F051
:107D8000DFFF10BD10B501F0DCFF10BD10B501F034
:107D9000DCFF10BD10B501F0D9FF10BD10B501F02A
:107DA000D6FF10BD10B501F0D3FF10BD10B501F026
:107DB000D0FF10BD10B501F0CDFF10BD10B501F022
:107DC000CAFF10BD10B501F0C7FF10BD10B501F01E
:107DD000C4FF10BD10B501F0C1FF10BD10B501F01A
:107DE000BEFF10BD10B501F0BBFF10BD10B501F016
:107DF000B8FF10BD70B50446082802D90020C04362
:107E000070BDFA48A604301805461021FFF7D2FCD1
:107E10002846FFF7CDFC0028FAD1F4481F2118307E
:107E20003018FFF7C7FCF24801218288A1408A433D
:107E30008280F04A002061005052ED49891D0855AA
:107E4000EA48203034182046FFF7B2FC0028FAD167
:107E5000012070BDF8B51C4616460F460546082899
:107E600002D90020C043F8BD012F06D0022F04D054
:107E7000042F02D00420C043F8BD6007810FDE4804
:107E8000FAD1002C0CD0012F02D0022F08D103E030
:107E900021210C42F0D003E0A10601D52106EBD54B
:107EA0002846FFF7A7FF21090901D0483943AF044D
:107EB00010383818FFF77EFC002E0AD1CC48CF4A84
:107EC0000688711C89B20180914202D10321890385
:107ED0000180C648F03038184661C448012138187E
:107EE0000646FFF767FC3046FFF762FC0028FAD130
:107EF000BF48E107C90F4288A940114341800121D1
:107F00008288A9408A438280BA4A00206900505280
:107F1000B749891D4855B54820303C182046FFF721
:107F200047FC0028FAD068B2F8BD70B506460828AC
:107F300002D90020C04370BDAC48B40410382018EA
:107F4000FFF736FC0007000F012802D00420C043D1
:107F500070BDA648203020180546FFF729FC1328DD
:107F600002D00220C04370BDA04802212018044660
:107F7000FFF720FC2046FFF71BFC0028FAD128461B
:107F8000FFF716FC142805D03046FFF733FF032017
:107F9000C04370BD012070BDF7B50D4607460828E7
:107FA00002D90020C043FEBD9048BC041038201800
:107FB000FFF7FEFB0007000F012802D00420C0439A
:107FC000FEBD8A48203020180646FFF7F1FB132833
:107FD00002D00220C043FEBD29786A7808028018CA
:107FE000AA7800028018EA7800028018421C32D079
:107FF000002830D00298002830D081482018FFF7A0
:10800000D9FB7F486978401E2018FFF7D3FB7C48D6
:10801000A978801E2018FFF7CDFB7948E978C01EAB
:108020002018FFF7C7FB76490298273961180862C4
:108030006E48042120180546FFF7BCFB2846FFF7D1
:10804000B7FB0028FAD16A4901204988B8400842A4
:108050001CD00020FEBD0B20C043FEBD0A20C04343
:10806000FEBD2846FFF7A4FB000708D55F4808219E
:1080700018302018FFF79EFB0C20C043FEBD304691
:10808000FFF796FB002804D1001FFEBD57481030B3
:1080900025183046FFF78CFB1728E2D10120FEBDE2
:1080A00070B50646082802D90020C04370BD4F486D
:1080B000B50410382818FFF77BFB0007000F0128D4
:1080C00002D00420C04370BD484808212818044647
:1080D000FFF770FB2046FFF76BFB0028FAD14449FD
:1080E00001208A88B04082438A80498808420CD0A7
:1080F000002070BD2046FFF75BFB00070BD5304624
:10810000FFF778FE0C20C04370BD384810302C18A3
:10811000364820302D182846FFF74AFB0028E9D1C1
:10812000012070BDF7B582B002981446082803D923
:108130000020C04305B0F0BD86042C48103830182C
:10814000FFF736FB0007000F012802D00420C043D0
:10815000F0E7002C0CD02548203030180190FFF7B4
:1081600027FB172807D01C2805D00620C043E1E7CD
:108170000D20C043DEE7029801251D4F8540B888D9
:10818000054211D0194810303018FFF711FBC00616
:10819000C00EC10621D51548102118303018FFF740
:1081A00009FBB888A843B8801548D930301800902A
:1081B000FFF7FEFA8006000C844200D904460098BE
:1081C000406887B20198FFF7F3FA17281AD01C28E5
:1081D00018D00298FFF70EFEC7E7000718D50298DF
:1081E000FFF708FE0C20C043A4E700001000014682
:1081F0001000002058030020FAFFFFFFF0FF0000EE
:1082000027010146FE484088054203D0BC4201D9FF
:1082100000208FE7BC42D2D8224603990298FFF78C
:10822000E3FAF848202130180646FFF7C3FA304633
:10823000FFF7BEFA0028FAD1F14881880D43858006
:10824000204677E7F7B582B002981446082802D98D
:108250000020C0436EE78704EA4810383818FFF75B
:10826000A7FA0007000F012802D00420C04361E7ED
:10827000002C19D0E4483818FFF79AFA8006000C51
:10828000A04200D20446DF48203038180090DE4873
:1082900020383E18706A85B20098FFF789FA1728CF
:1082A00015D01C2803D00CE00D20C04342E7002D60
:1082B0001AD13046FFF77CFA7168800289B2884291
:1082C00005D10298FFF796FD0620C04332E70299D8
:1082D00001208840CA494988084203D0002D03D1B3
:1082E000002027E7002DD5D0A54200D22C462246FB
:1082F00003990298FFF78CFAC248402138180546C6
:10830000FFF758FA2846FFF753FA0028FAD120461B
:1083100010E7FFB583B003981E461546082803D919
:108320000020C04307B0F0BD8404B64810382018C0
:10833000FFF73EFA0007000F022804D0042802D0FD
:108340000420C043EEE7002D1DD030787178000284
:108350004018B17800024018F1780002C84202D1FA
:108360000B20C043DEE70C9800280FD0A548203032
:1083700020180746FFF71CFA42280AD0222808D006
:108380000620C043CEE70D20C043CBE70A20C04300
:10839000C8E79D483178F9382018FFF70BFA9A485A
:1083A0007178FA382018FFF705FA9748B178FB384A
:1083B0002018FFF7FFF99448F178FC382018FFF7F0
:1083C000F9F990490C98F031611808628E4820380C
:1083D00020180190FFF7ECF98006000C854200D9C7
:1083E000054603990120884000900198406886B2B4
:1083F0003846FFF7DDF9002808D081490098498800
:10840000084206D0B54204D900208BE70320C043C0
:1084100088E7B542E9D82A4604990398FFF7E4F9BA
:108420007848202120180746FFF7C4F9754818300E
:1084300026183846FFF7BCF90028FAD171481030E9
:1084400024182046FFF7B4F9C006C00EC10605D5B2
:1084500030461021FFF7AEF9284663E70007F0D554
:1084600030460821FFF7A6F90C20C0435AE7FFB5B4
:10847000002485B00646082802D9601E09B0F0BD68
:108480006048B50410382818FFF792F904900007E7
:10849000000F022804D0042802D00420C043EDE7D6
:1084A0000798002805D059487700C05B002803D002
:1084B00022E00D20C043E1E75348203828180390FC
:1084C0005048203028180125B54002900398406A92
:1084D00084B20298FFF76CF9002806D0484840881B
:1084E000054207D0002C03D006E00320C043C5E7B7
:1084F0000020C3E7002CE9D041480021801D8155B0
:108500000498B20441073F48490F151802291FD0AB
:10851000042957D021463046FFF78EF93B48C45313
:1085200028464021FFF746F92846FFF741F9002881
:10853000FAD13648C15B091B0904090CC15305D0A7
:108540002F480122801D815D11438155204695E70A
:108550002E4CE05B002865D1082269463046FFF7C3
:1085600057F928464021FFF725F92846FFF720F95B
:108570000028FAD168460178089801706846417869
:108580000898417068468178089881706846C1787B
:108590000898C17068460E99007908800102684603
:1085A000407908180E99088068468079010268466B
:1085B000C0790818E05332E0224630460699FFF7AA
:1085C00027F9ADE7114CE05B00282BD10222694668
:1085D0003046FFF71DF928464021FFF7EBF8284603
:1085E000FFF7E6F80028FAD16846007801026846ED
:1085F0004078081880B20649E05388420FD909E054
:1086000010000020100001462002014658030020FF
:10861000EA0500003046FFF7EDFB72482EE772498D
:1086200080208855E45B07988442C5D90446C3E797
:10863000F8B51546082802D90020C043F8BD8404C7
:108640006A4B6A4A6A4880330427E618A218201841
:10865000FF430B0009F06DF9084F0509104213168E
:10866000444F62482978083002E060482978001DAC
:108670002018FFF79FF831E0288810612EE0288845
:1086800010622BE0FFF794F80007000F01282DD1AE
:108690003046FFF78DF8002802D00120C043F8BD16
:1086A00053482221103020180546FFF783F8504820
:1086B000203026180DE03046FFF77AF8000708D57D
:1086C0004B48082128302018FFF774F80C20C043CD
:1086D000F8BD2846FFF76CF80028ECD10120F8BD62
:1086E000FFF766F80007000F012801D03846F8BDF3
:1086F00029783046BDE70920C043F8BDF8B51446D7
:108700000646082802D90020C043F8BDB504394BFD
:108710003748364AEF182818AA180B0009F009F94B
:108720000D080D121517305E323E404248525E0071
:10873000FFF73EF80009000102E02C48083033E062
:1087400020703DE02948001D2EE01069F8E7274819
:1087500027302818FFF72CF82070244826302818D6
:10876000FFF726F86070214825302818FFF720F819
:10877000A0701E4824302818FFF71AF8E0701FE098
:10878000106A1CE0FFF714F80007000F01281FD142
:10879000164880302818FFF70BF810E078680EE0D4
:1087A000786A0CE0124830302818FFF701F8C7E764
:1087B000FEF7FEFF0128F3D00F497000085A208011
:1087C0000120F8BDFEF7F4FF0007000F012802D0DA
:1087D0000420C043F8BD0448805DB1E70120C043D8
:1087E000F8BD000017FCFFFF160000200001014645
:1087F0000000014600020146580300207047704700
:10880000704770470078704701707047F0B593B0BB
:10881000F748FEF7CDFF1190F548401EFEF7C8FF60
:10882000F34C1090A41E2046FEF7C2FF651E0F9069
:108830002846FEF7BDFF0E90A01DFEF7B9FF0D9074
:10884000601DFEF7B5FF0C90E9480830FEF7B0FF59
:108850000B90E748C01DFEF7ABFFE54E0A90B61D32
:108860003046FEF7A5FF0990E01DFEF7A1FF089036
:10887000B01DFEF79DFF0790701DFEF799FF069053
:10888000301DFEF795FF0590F01CFEF791FF049058
:10889000D7481030FEF78CFFD54F03900F3738467E
:1088A000FEF786FF0290781EFEF782FF0190F01D12
:1088B000FEF77EFF00908021CE48FEF77BFFCD487B
:1088C000FEF776FFA01C1199FEF774FF601C10994B
:1088D000FEF770FF20460F99FEF76CFF28460E99B1
:1088E000FEF768FFA01D0D99FEF764FF601D0C994F
:1088F000FEF760FFB01C0B99FEF75CFF701C0A9935
:10890000FEF758FF30460999FEF754FFE01D08991D
:10891000FEF750FFB01D0799FEF74CFF701D06993A
:10892000FEF748FF301D0599FEF744FFF01C04993F
:10893000FEF740FF781C0399FEF73CFF384602998A
:10894000FEF738FF781E0199FEF734FFF01D0099FD
:10895000FEF730FF13B0F0BDF8B50D460646002413
:10896000FFF754FF002E14D00022B05C521C0019F7
:1089700052B244B2082AF8DB102C17DC9E4F0024B8
:10898000A004315DC019FEF715FF641C64B2082C09
:10899000F6DB002D19D0002108462A5C401C511836
:1089A00040B249B20828F8DB102902DD0020C0439C
:1089B000F8BD914E00242036A004295D8019FEF7F1
:1089C000F9FE641C64B2082CF6DB0020F8BD10B57B
:1089D000044687484130FEF7EBFE207084483D3066
:1089E0000068608010BD10B501780446002903D0EE
:1089F0007F484130FEF7DEFE7D4960883D310860EA
:108A000010BD10B57B48FEF7D3FE10BD70B504460F
:108A1000C720044202D00020C04370BD754D2846D7
:108A2000FEF7C6FE204301462846FEF7C3FE00209F
:108A300070BD10B504466E48FEF7BAFE20706C4853
:108A4000401EFEF7B5FE60706948801EFEF7B0FE5E
:108A5000A0706748C01EFEF7ABFEE0706448001DC2
:108A6000FEF7A6FE20716248C01CFEF7A1FE6071F1
:108A70005F480830FEF79CFEA0735D48C01DFEF7FE
:108A800097FEE0735A48801DFEF792FE2074584806
:108A9000401DFEF78DFE607455480C30FEF788FED1
:108AA000A07253480B30FEF783FEE07250480A3044
:108AB000FEF77EFE20734E480930FEF779FE6073A4
:108AC0004B481030FEF774FEA07149480F30FEF796
:108AD0006FFEE07146480E30FEF76AFE2072444891
:108AE0000D30FEF765FE607244480178A17441784C
:108AF000E17481782175C07860754048401E007827
:108B0000A07510BD10B5044601783948FEF752FE35
:108B100037486178401EFEF74DFE3548A178801E2B
:108B2000FEF748FE3248E178C01EFEF743FE3048AB
:108B30002179001DFEF73EFE2D486179C01CFEF72D
:108B400039FE2B48A17B0830FEF734FE2848E17B34
:108B5000C01DFEF72FFE2648217C801DFEF72AFE51
:108B60002348617C401DFEF725FE2148A17A0C3088
:108B7000FEF720FE1E48E17A0B30FEF71BFE1C4874
:108B8000217B0A30FEF716FE1948617B0930FEF79B
:108B900011FE1748A1791030FEF70CFE1448E17958
:108BA0000F30FEF707FE1248217A0E30FEF702FE64
:108BB0000F48617A0D30FEF7FDFD1048A17C017071
:108BC000E17C4170217D8170617DC1700B49A07D88
:108BD000491E087010BD10B50C46030008F0A9FE30
:108BE00006041014181C20250846FFF78BFF1AE016
:108BF00003600046002300460002014621000020D9
:108C00000846FFF716FF0EE00878FFF7FFFE10BDDD
:108C1000FFF7F7FE207006E00846FFF7E4FE02E0EB
:108C20000846FFF7D4FE002010BD0020C04310BD51
:108C300010B5FE4CFE482178FEF7BCFDFC4861787B
:108C4000401EFEF7B7FDFA48A178801EFEF7B2FD80
:108C5000F748E178C01EFEF7ADFDF54808342178ED
:108C6000001FFEF7A7FDF2486178401FFEF7A2FD46
:108C7000EF48A178801FFEF79DFDED48E178C01F09
:108C8000FEF798FDEA48241F21780838FEF792FD88
:108C9000E74861780938FEF78DFDE548A1780A3884
:108CA000FEF788FDE248E1780B38FEF783FD10BD42
:108CB00010B5E04C80212046FEF77CFD2046FEF7F3
:108CC00077FDFFF7B5FFD94CD948393421781038F2
:108CD000FEF770FDD64861781138FEF76BFDD44879
:108CE000A1781238FEF766FDD148E1781338FEF717
:108CF00061FDCF4821790C38FEF75CFDCC486179E5
:108D00000D38FEF757FD10BD10B5CA4C8021204626
:108D1000FEF750FD2046FEF74BFDC44CC4483934E5
:108D200021781038FEF746FDC14861781138FEF70A
:108D300041FDBF48A1781238FEF73CFDBC48E17800
:108D40001338FEF737FDBA4821790C38FEF732FDAB
:108D5000B74861790D38FEF72DFD10BDB34B10B546
:108D6000DB1FB54C5C62B54C9C62B54CDC620028E4
:108D700000D05862002900D09962002A00D0DA623F
:108D800010BD30B5A94B0120DB1FD96B08704870AE
:108D9000062088700020C8709A6B120E0A719A6BB8
:108DA000120C4A711A8F120A8A711A8FCA71D96B02
:108DB000802208818A72C872D96B1A460873487378
:108DC0008873C873087448748874C87408754875C3
:108DD0008875C875087648768876C87640321478E3
:108DE0000C7754784C7794788C77D478CC770C4681
:108DF0001579203425705279627006228C18521C25
:108E0000D2B22077102AF9D3DA6B0021541820341B
:108E1000491CC9B220734029F8D3DA6B00215418D9
:108E20006034491CC9B220738029F8D3D86B632100
:108E3000E03001738222427353228273C17330BDCA
:108E4000FEB5FFF79EFF7949002029310870487070
:108E50008870C870091D087048708870C8703439EF
:108E6000CB6B3522F021CA540127F121CF54F221D6
:108E7000CF543D22F321CA540722F421CA54F521CC
:108E80006A4ACF5439321478F621CC5411464C78C2
:108E9000F721CC541446A578F824E5541446E57817
:108EA000F924E55414462579FA24E55414466579E5
:108EB000FB24E5540C21FC24E154FD21C85412216B
:108EC000941D06E05E18E036491C401C357389B2DB
:108ED00080B2255C002DF5D1544CD578E41FE36BAE
:108EE0005E18E0363573491C89B25E181579E03694
:108EF0003573491C89B25D185279E0352A73491CD3
:108F000089B2C21C081AC018E0300272E06B372226
:108F10004318E0331A73491C89B243180622E03320
:108F2000491C1A7389B24318E033491C1F7389B274
:108F300043180325E033491C1D7389B24318E033FD
:108F40001A73491C89B243180F22E0331A73491C63
:108F500089B242183A23E0321373491C89B242188D
:108F60003B23E0321373491C89B2FF224318E033DC
:108F70001A73491C0025FF2389B2393304E04618CF
:108F8000E036491C357389B29942F8D368460271BC
:108F900042718271C27143200090892201AB92001C
:108FA000A078E16BFFF7B5F9FEBDFEB5FFF7E9FE6E
:108FB0001E4C0020E41FE11D20560B462933FF27DD
:108FC000032849D0042847D0684607714771877144
:108FD000C771E26B3520F025A8540120F125A85473
:108FE0000320F225A8543D20F325A8540720F4259A
:108FF000A8540120F525A8540C48F62539300078EE
:10900000A8540A48F72539304078A8540748F8256D
:1090100039308078A8540548F9253930C078A854EB
:10902000024839300079FA25A8540BE05700002097
:109030001360004600230046318C0000B18C000014
:10904000098D0000FC48FB254079A8546D46ED7958
:109050001020FF2D16D039E0E06B00228272C27220
:109060000A7802734A7842738A788273CA78C27324
:109070001A78684602715A7842719A788271DA7861
:10908000C271A6E73225FC2085540425FD208554B5
:109090000E78FE2086544E78FF2086548878AE01E4
:1090A000B054C978701C81543621401C8154401C36
:1090B00085541978401C81545978401C8154997802
:1090C000401C8154D978401C81541C2013180C2159
:1090D000E0331973401C1318D74D0021E033AD1D48
:1090E0001973401C05E01618E036401C337380B23B
:1090F000491C6B5C002BF6D1E36BCF4A1E18D57868
:10910000E0363573401C80B21E181579E036357391
:10911000401C80B21D185279E0352A73401C82B27F
:10912000C81C511AC918E0310872E06B3721831846
:10913000E0331973521C91B243180822E0331A73BA
:10914000491C89B243180122E0331A73491C89B2C1
:1091500043180322E0331A73491C89B243180622CC
:10916000E0331A73491C89B243180F22E0331A7393
:10917000491C89B242183A23E0321373491C89B260
:109180004218E0323B23491C137389B21F23421853
:10919000E0321373491C89B242182123E032137361
:1091A000491C89B24218E0321773491C0022FF2380
:1091B00089B2393303E04518E0352A73491C9942D6
:1091C000F9DB43200090892201AB9200A078E16B8B
:1091D000FFF79FF8FEBD1CB5FFF7D3FD96480021B1
:1091E0004038C06B35228172C172F0210A540122CD
:1091F000F1210A540422F2210A543D23F3210B5495
:109200000722F4210A540122F5210A548A49F62240
:109210000B7813544B78F72213548B78F82213549D
:10922000CB78F92213540B79FA2213544A79FB2193
:109230000A543222FC210A540422FD210A547E4998
:1092400039390A78FE210A547B4939394A78FF2195
:109250000A54794939398A78FF2101310A5476490B
:109260003939CA78FF2102310A543622491C0A547E
:109270000422491C0A547049FF2210390B78053228
:1092800013544B78521C13548B78521C1354CA78C5
:10929000FF2108310A54FF22491C0A541D210023D2
:1092A000FF2239324418E034491C23739142F9DB20
:1092B000FF206946087148718871C8714320009089
:1092C0005D4889224038C16B01AB92008078FFF77E
:1092D00020F81CBDF0B5584C584A403CA07885B0E9
:1092E00081048918496A0A04120C5BD003A9009111
:1092F00001ABE16BFFF7BBF883B268468089432876
:1093000070D1E06B4C49027F0D78AA424AD1427F6E
:109310004D78AA4246D1827F8D78AA4242D1C57F3C
:10932000CA7895423ED102462032154616780A790F
:10933000964237D16A7849798A4233D12146303111
:109340000D780A1D002D08D14E78002E05D18E789B
:10935000002E02D1CE78002E27D06E463679AE424E
:109360000ED16D466D794F78BD4209D16D46AD790C
:109370008F78BD4204D16D46ED79CF78BD4214D0CF
:109380001578AE420ED16D466D795678B54209D149
:109390006D46AD799678B54204D16D46EE79D578B3
:1093A000AE4202D0002005B0F0BDF0300025C31859
:1093B000F03B15E00678332E42D008DC002E15D0A5
:1093C000012E18D0032E21D0062E06D124E0352EF2
:1093D0000ED0362E43D0FF2E06D04678801C801942
:1093E0009842E7D368B2DEE71846F9E7401CF7E792
:1093F0008578C01CF4E7104E8778313E3770C77807
:1094000077700779B7704779F7703CE046788778CE
:10941000B446094E353E04E046788778B446064E99
:109420002D3E3770C77877700779B7704779801D00
:109430006044F770001FD3E790000020000201464F
:109440008678A661C7783602BF19A76106793F0200
:10945000F719A76146793F02F619A66113E08678ED
:109460000E70C6784E7006798E704679CE706E4654
:10947000367916706E46767956706E46B679967065
:109480006E46F679D670801DAAE7E8480021C161D2
:10949000052202624170704770B5E44C01256157A6
:1094A000002622469057022917DAE269216A914282
:1094B00023D2012804D0022805D0042805D102E0D7
:1094C000FFF7BEFC01E0FFF770FDE661E069401DBB
:1094D00020626078401C60700FE0012804D00228F0
:1094E00005D0042807D102E02670002503E0FFF72D
:1094F000A7FC01202070FFF7C8FF284670BDF8B513
:10950000CB4E3046FEF754F9054603213046FEF7B0
:1095100051F9C64BC748DB1DDC1F00901122C6A1C4
:10952000A078FEF7F6FE074629463046FEF742F9D8
:109530000D3708D0FFF74FFEE069E169091A0229EB
:10954000FBD30020F8BD0120F8BDF8B5B74C20785A
:1095500006281ED0A078BD4980044018FEF728F9DF
:10956000222805D0002344220221A078FEF772FCB5
:109570000125FFF7AFFEC1B20022A256AB4800267C
:109580000127C01D130008F0D4F905060D1C314C4D
:109590002F000520F8BD067046708670C670FFF774
:1095A0004FFC5EE002291CD1E16B0A7C02704A7C10
:1095B00042708A7C8270C97CC170FFF7F6FC022081
:1095C0004BE005290BD1FFF79AFF002801D0606A14
:1095D0003FE0FFF75AFFE06A8047267004E0062963
:1095E0003DD0FFF759FF05462846F8BDA16904257F
:1095F0004A1CF9D0E26949089142F5D28B490278B8
:10960000C91C0A7042784A7082788A70C078C87023
:10961000A06B401CA063FFF7C8FCFFF736FF0420D7
:109620001BE004250529DAD180496670C91C0A7837
:1096300003789A420BD14A7843789A4207D18A78C4
:1096400083789A4203D1C978C078814202D0A06A57
:1096500003258047FFF719FF03202070C4E7FFF7B9
:1096600014FF2770C0E710B5704CA078FEF7C2FB5E
:109670000620207010BDF3B56D4F83B0064600255F
:10968000413F38460095FEF793F8684C403420700F
:10969000781EFEF78DF86070B81EFEF789F8A0708E
:1096A000F81EFEF785F8E070381DFEF781F820718E
:1096B000F81CFEF77DF86071014620786278E37847
:1096C0001043A2781A4310432279104308431FD154
:1096D000257008206070DC20A070E5702571294697
:1096E00065713846FEF766F86178781EFEF762F815
:1096F000A178B81EFEF75EF8E178F81EFEF75AF87A
:109700002179381DFEF756F86179F81CFEF752F8FA
:10971000464F4F49BE700498F863E0786379421869
:1097200021798A1848409A1858408018B8636846CA
:1097300001783F480C463138FEF73CF868464078DF
:10974000029001463A483238FEF734F8684680788D
:109750000190014636483338FEF72CF86846C67843
:10976000334831463438FEF725F831482146313840
:10977000FEF720F82E4802993238FEF71BF82C48E5
:1097800001993338FEF716F8294831463438FEF788
:1097900011F8274821463938FEF70CF82448029979
:1097A0003A38FEF707F8224801993B38FEF702F8ED
:1097B0001F4831463C38FDF7FDFFFFF766FE3D7060
:1097C000F1E51A48C169491CC16170471749C91DB3
:1097D0000A7802704A7842708A788270C978C170BB
:1097E000704712490B310A7802704A7842708A78C1
:1097F0008270C978C17070470C490F310A780270C5
:109800004A7842708A788270C978C1707047074977
:1098100013310A7802704A7842708A788270C97867
:10982000C1707047014880697047000050000020F7
:109830004460004688130000434845434B5F49504D
:109840005F434F4E464C49435400000030000146F0
:1098500078563412017840780902401880B2704777
:109860000A0A02704170801C7047F0B584460020DF
:10987000054606460C78491C002D00D1401C2706E1
:10988000BF0F032F0AD1002D00D1401CA406097878
:10989000A40C6444091901250C78491C002C19D02A
:1098A0001B1B5B1E1BB2002B02DA0020C043F0BD65
:1098B000002D05D1001903E00F781770491C521CC8
:1098C0002746641EA4B2002FF6D12E241470521C19
:1098D000761CCFE7002E02D12E211170521C0021E0
:1098E0001170F0BD10B593B00C464B236A46FFF7DC
:1098F000BCFF411C03D02018001D13B010BD002078
:10990000FBE770B593B015460C4606464B236A46F6
:10991000FFF7ABFF411C46D024182046FFF79AFF03
:109920000A34030008F005F8103C09133C3C1329E5
:109930001313133C3C13183C1F3C207828706078AC
:109940006870A078A870E078E870241D28E04B23A8
:109950006A460BE0241823E02078641C2018017864
:10996000401C44181CE04B236A46A41C2146304688
:10997000FFF77BFF411C16D0ECE74B236A462146DC
:109980003046FFF772FF411C0DD024184B236A4666
:1099900021463046FFF769FF411C04D024181434D7
:1099A000204613B070BD0020FBE7F7B50D46044616
:1099B000122107F06CF92846FFF74CFF2080A81C05
:1099C000FFF748FF02040121002A00DAA1704204D7
:1099D000120FE270420500D52171820500D5617138
:1099E000C20500D5A171020600D5E1710007000F84
:1099F0002072281DFFF72EFF6081A81DFFF72AFFA8
:109A0000A08128460830FFF725FFE08128460A306C
:109A1000FFF720FF29460C3100262082771E06E042
:109A20002846FFF75FFF010014D0761CB6B26089AC
:109A3000B042F5D8002607E02846029AFFF761FFFA
:109A4000010007D0761CB6B2A089B042F4D800203D
:109A5000E18903E03846FEBD401C80B28142FBD85C
:109A60000020218A01E0401C80B28142FBD8207A8C
:109A7000002801D00020FEBD0120FEBDFFB55E4ADA
:109A80000D46518895B00346491C89B217985180FC
:109A9000FFF7E6FED902FF31013189B2FFF7E0FEA0
:109AA0000121FFF7DDFE0021FFF7DAFE0021FFF7BD
:109AB000D7FE0021FFF7D4FE04462946684606F08B
:109AC000E5FF6E46304607F007F880B213902E216E
:109AD000304606F0A3FF070002D0B81B85B200E0B5
:109AE000139D2570641C002D12D02A463146204655
:109AF00007F0D2F86419002F07D013987619401B8D
:109B0000401E80B2761C1390E1E700202070641C98
:109B100001212046FFF7A4FE0121FFF7A1FE1799BE
:109B200019B0401A00B2F0BD3348816803290BD345
:109B3000002282600178022902D30270501E704711
:109B4000491C017000207047012070472A4A50705C
:109B50002A48516050807047F7B5274C0D460023C6
:109B600088B01A4602216078FEF774F9FF260136A4
:109B70003346294600206268FFF780FF35250095AF
:109B800082B2089B60786168FEF7C3FB1C4F607867
:109B90008004C019406A05042D0C16D0B54200D9C6
:109BA000354607A8009006AB2A4660786168FEF744
:109BB0005EFC0A9A01A86168FFF7F7FE0546607827
:109BC000FEF718F928460BB0F0BDFFF7ADFF0028EF
:109BD00001DA0020F7E70028D9D1352000902A4685
:109BE000089B60786168FEF794FBD0E702488168C3
:109BF000491C816070470000A00000202211000075
:109C000000020146F0B587B002F09AFB04466D46AB
:109C1000A81DFFF7DBFD03A802300690FFF7E1FD6A
:109C200002A802300746FFF7E7FD04A80230064607
:109C3000FFF7EDFD214606221731684602F09BFC36
:109C400020460422A91D1D3002F099FC2046042262
:109C50002130069902F093FC204604223946253033
:109C600002F08DFC204604223146653002F087FC6C
:109C70006034E078002801D0022000E0012069462D
:109C800088750020FEF7A7FF07B0F0BD7047000001
:109C900070477047704710B500F01FFF10BD704748
:109CA000704710B52F4804F0EDFA10BD10B52E48DE
:109CB00004F0E8FA10BD70477047704710B52124D2
:109CC0000121640689022046FDF7F6FB002802D137
:109CD00026490320087026A006F0B0FC2046FDF7B8
:109CE00021FC10BD10B54324240601212046FDF7B8
:109CF000E3FB002802D01D49042008701EA006F0D6
:109D00009DFC2046FDF70EFC10BD70B51124A40685
:109D100004212046FDF7D0FB054608212046FDF72B
:109D2000CBFB0146012D06D11048002901D00221AC
:109D300000E0012101702046FDF7F4FB70BD704783
:109D4000704710B504F021FA10BD70477047704796
:109D5000704770477047704770477047704770474B
:109D60007047704700C0004000D00040AC000020A9
:109D70004F4B200D0A0000004241434B0D0A0000EA
:109D800010B5CE49097801290AD1CD4C2178012995
:109D900006D101F094FB002002F03AF90020207077
:109DA00010BD3EB502F0CCFA6421095C002906D052
:109DB000C4490978012906D0C3A006F03FFCC6A01B
:109DC00006F03CFC3EBD014621314A7C097C120272
:109DD0000A43014620318B7B4C7B00940193029215
:109DE0000B7BCA7A4931BDA006F028FCE7E7FEB537
:109DF00002F0A6FA04460025C1490420FFF7A6FE9A
:109E000020466030427969460A7082794A70C27988
:109E100006468A70007AC870032000F073FF20465F
:109E20002B306934019021466846019AFFF794FE71
:109E3000074601280BD06D1CEDB2022D07D803F0A8
:109E400036FEF0780028EED0FFF77FFBEBE701202D
:109E500000F058FF3846FEBD10B502F071FA6030D0
:109E6000C078002806D0A7480078012803D0A6A013
:109E700006F0E4FB10BDFFF7D5FC0146A7A006F0F5
:109E8000DDFB10BD70B5002502F05AFA06462936F2
:109E90009B490320FFF7EFFBAB49AA4A0846FEF7B0
:109EA0005DFF032000F02EFFFFF74FFB0446042860
:109EB00007D0002C01D16D1CEDB2032D09D9FFF79D
:109EC000D2FB7078042802D0012000F01BFF60B2A2
:109ED00070BD03F0ECFD0020FFF752FFE4E710B582
:109EE0001124A4060123002208212046FDF745FB8A
:109EF00001212120002289024006FDF75EFB01229C
:109F0000432011460006FDF758FB0122042120469C
:109F1000FDF753FB10BDF0B591B002F011FA044605
:109F20003C228A496846FDF745F9611D88A006F084
:109F300085FB26462036707A8B49800009588BA015
:109F400006F07CFB8FA006F079FB204660300F9076
:109F5000C07801282AD091A192A006F06FFB9AA0A8
:109F600006F06CFB27462337787B3A7B01021143CE
:109F70009AA006F063FBA049A0A006F05FFB9E49F3
:109F8000A7A0491C06F05AFBAE48FDF711FC01469C
:109F9000ADA006F053FBB5A006F050FB25464035BA
:109FA000287E002804D02246583202E0B5A1D3E72B
:109FB000B9A2002801D0BAA100E0BBA1BDA006F063
:109FC0003DFBC0A006F03AFB0F988078012811D025
:109FD000B5A1C5A2CCA006F031FBCEA006F02EFBA9
:109FE000D5A006F02BFB787C3A7C0102114303D00C
:109FF000D7A003E0AAA1ECE7ABA159A006F01EFB95
:10A00000D7A006F01BFB20462130417D007D0902D0
:10A01000014301D0D8A001E0A3A151A006F00EFB9E
:10A02000D9A006F00BFB0023DDA2DDA1DEA006F027
:10A0300005FB6879E34980000958E3A006F0FEFAC1
:10A04000A879694680000958E5A006F0F7FAE87992
:10A05000E649095CE6A006F0F1FA287AE5498000B5
:10A060000958E5A006F0EAFA687AE449095CE4A038
:10A0700006F0E4FA6979E44800291CD00168E3A0FD
:10A0800006F0DCFA0223C6A2C5A1E5A006F0D6FAC6
:10A09000EAA3ECA2EDA1F1A006F0D0FAF4A006F03C
:10A0A000CDFAFCA006F0CAFA787D3A7D0102114390
:10A0B00002D0B1A0FAE1F3E1F6E10000D8000020FF
:10A0C000DA000020E6000020202320444E532046E2
:10A0D00061696C65640D0A000D0A000020232044AC
:10A0E0004E533A202573203D3E2025642E25642EB4
:10A0F00025642E2564203A2025640D0A0000000006
:10A1000068030020300100202023204448435020D1
:10A110004661696C65640D0A00000000202320443C
:10A12000484350204950204C656173656420746930
:10A130006D65203A202575207365636F6E64730D1D
:10A140000A0000008D9C0000059C0000FC1A010024
:10A15000202D20446576696365206E616D653A2027
:10A1600025730D0A0000000020010020202D20444E
:10A170006576696365206D6F64653A2025730D0A05
:10A1800000000000202D204E6574776F726B2073E5
:10A19000657474696E67733A200D0A0053746174B4
:10A1A00069630000092D204F627461696E696E67F2
:10A1B0002049502073657474696E67733A205B257B
:10A1C000735D0D0A00000000092D205443502F55E7
:10A1D000445020706F7274730D0A00000920202013
:10A1E0002B20533245206461746120706F72743A81
:10A1F000205B25645D0D0A0051C30000092020206A
:10A200002B205443502F5544502073657474696E4D
:10A210006720706F72743A205B25645D0D0A000040
:10A22000092020202B204669726D776172652075A8
:10A23000706461746520706F72743A205B25645D90
:10A240000D0A000044600046092D2054435020525E
:10A25000657472616E736D697373696F6E20726578
:10A260007472793A205B25645D0D0A00202D20531D
:10A27000656172636820494420636F64653A200D0C
:10A280000A0000004175746F6D61746963202D20B0
:10A2900044484350000000004E6F6E65000000000F
:10A2A000456E61626C65640044697361626C6564EB
:10A2B00000000000092D2025733A205B25735D0DF9
:10A2C0000A000000202D2045746865726E657420B8
:10A2D000636F6E6E656374696F6E20706173737700
:10A2E0006F72643A200D0A0028544350207365723F
:10A2F000766572202F206D69786564206D6F6465C6
:10A30000206F6E6C79290000092D2025732025739C
:10A310000D0A0000202D20436F6E6E656374696F17
:10A320006E2074696D65722073657474696E6773ED
:10A330003A200D0A00000000092D20496E61637467
:10A3400069766974792074696D65723A200000003D
:10A350005B25645D2028736563290D0A00000000F9
:10A36000092D205265636F6E6E65637420696E748B
:10A37000657276616C3A20005B25645D20286D7300
:10A380006563290D0A000000202D20536572696164
:10A390006C2073657474696E67733A200D0A00004F
:10A3A0005541525400000000092D20446174612081
:10A3B000257320706F72743A20205B257325645DCD
:10A3C0000D0A0000F4020020092020202B20554116
:10A3D00052542049463A205B25735D0D0A00000067
:10A3E000092020202B2025642D000000D002002011
:10A3F00025642D00D402002025732D00E0020020EA
:10A400002564202F20000000E4020020466C6F77B6
:10A4100020636F6E74726F6C3A2025730D0A000012
:10A42000092D20446562756720257320706F727452
:10A430003A205B257325645D0D0A00002866697863
:10A44000656429004E4F4E45000000003131353221
:10A4500030302D382D4E2D310000000009202020F5
:10A460002B202573202F2025732025730D0A000033
:10A47000202D2053657269616C20646174612070C5
:10A4800061636B696E67206F7074696F6E733A0DEC
:10A490000A000000092D2054696D653A2000000073
:10A4A000A97A89004158EAE5AC49AD4806F0C6F8FA
:10A4B000ACA006F0C3F8717E002901D0ACA001E089
:10A4C000A649A74806F0BAF8ADA006F0B7F8B07FE5
:10A4D00001281CD0A149A24806F0B0F8ABA006F0B4
:10A4E000ADF88034E07E012814D09C49B1A006F07C
:10A4F000A5F8E37FA27F617FB0A006F09FF8B8A027
:10A5000006F09CF8E87A002807D0BFA206E0B17EEA
:10A51000BEA0E1E791490839E8E7C1A2C3A1C5A0FF
:10A5200006F08CF8287B002801D0C9A200E0C9A25F
:10A53000CCA1CEA006F082F8D3A006F07FF8DD4CC7
:10A54000207804F0AEFDDC4D80002F58207804F018
:10A5500099FDDA4E800032583B46D9A1DAA006F0C8
:10A560006DF8607804F09DFD80002F58607804F04D
:10A5700089FD800032583B46DBA1DDA006F05EF885
:10A58000A07804F08EFD80002F58A07804F07AFDAA
:10A59000800032583B46DEA1DFA006F04FF8E0789D
:10A5A00004F07FFD80002D58E07804F06BFD800002
:10A5B00032582B46E0A1E2A006F040F8E8A1A2A0A4
:10A5C00006F03CF811B0F0BD38B501F0B9FE044614
:10A5D0006AA006F033F8E2A19BA006F02FF8EDA1E7
:10A5E000F0A006F02BF8F1A006F028F8F9A00090F2
:10A5F000A37D627D217DF9A006F020F8D8A192A06C
:10A6000006F01CF838BD01B5FD48009981608168ED
:10A610000029FCD108BD8AB001F092FE0446F8483A
:10A620000521401C01700621417000F05FFAF5A180
:10A6300003C907910690F3A103C909910890FEF799
:10A64000E5F8FCF7EFFDF14906F0B9FBF0490860C9
:10A6500008A906A8FEF780F900F0E8FA01F029FF42
:10A6600020462030012707908772C01C417D027D63
:10A670000802104301D0E749088002F002F801F017
:10A680005FFE8030817E684601767D21090141832D
:10A6900006A8FEF7A8F903F034FF25464035687B8D
:10A6A000002803D0FFF790FFFFF735FC02F009F810
:10A6B000FFF715FC26466036F07800282BD0FFF710
:10A6C000E1FB042825D0214606221731684601F017
:10A6D00052FF214601A804221D31023001F04FFF34
:10A6E000214603A804222131023001F048FF21460F
:10A6F00002A804222531023001F041FF04A80422FF
:10A70000711D023001F03BFF69460020FEF763FA3D
:10A7100003E0C1480770C1480770687B002803D078
:10A7200001F031FFFFF798FB0798407A01280DD020
:10A73000307900280AD0FFF75AFB002801D0B8482A
:10A740000770687B002801D0FFF72BFBB54901207B
:10A75000B54C087020780027002867E1A8A2000007
:10A7600060A10000092D2053697A653A200000009D
:10A770005B25645D20286279746573290D0A0000E9
:10A78000092D20436861723A20000000202D2053DB
:10A79000657269616C20636F6D6D616E64206D6FB1
:10A7A00064652073776974636820636F64653A0D2C
:10A7B0000A000000092D2025730D0A00092D205BD9
:10A7C000252E32585D5B252E32585D5B252E325882
:10A7D0005D2028486578206F6E6C79290D0A00008D
:10A7E000202D20486172647761726520696E666F02
:10A7F000726D6174696F6E3A205374617475732061
:10A8000070696E730D0A0000445452005B252E32AD
:10A81000585D2028686578206F6E6C79290D0A00D4
:10A82000504859206C696E6B0000000050415F3148
:10A8300030000000092D2053746174757320313A83
:10A84000205B25735D202D2025730D0A000000007C
:10A850004453520054435020636F6E6E65637469B5
:10A860006F6E000050415F3031000000092D205311
:10A87000746174757320323A205B25735D202D203E
:10A8800025730D0A00000000202D204861726477B6
:10A8900061726520696E666F726D6174696F6E3A80
:10A8A000205573657220492F4F2070696E730D0A11
:10A8B00000000000300300203C030020340300208F
:10A8C00050435F3133000000092D205573657249F4
:10A8D0004F20413A205B25735D202D202573202FCA
:10A8E0002025730D0A00000050435F313200000044
:10A8F000092D2055736572494F20423A205B25731C
:10A900005D202D202573202F2025730D0A000000C7
:10A9100050435F3039000000092D2055736572499E
:10A920004F20433A205B25735D202D202573202F77
:10A930002025730D0A00000050435F3038000000EE
:10A94000092D2055736572494F20443A205B2573C9
:10A950005D202D202573202F2025730D0A00000077
:10A960003D3D3D3D3D3D3D3D3D3D3D3D3D3D3D3D17
:10A970003D3D3D3D3D3D3D3D3D3D3D3D3D3D3D3D07
:10A980003D3D3D3D3D3D3D3D3D3D3D3D3D3D3D3DF7
:10A990003D3D000057495A37353053522D317878B4
:10A9A00000000000202573200D0A0000203E3E20FC
:10A9B00057495A6E65742053657269616C20746FD3
:10A9C0002045746865726E657420446576696365B8
:10A9D0000D0A0000537461626C650000203E3E2049
:10A9E0004669726D776172652076657273696F6E04
:10A9F0003A2025642E25642E25642025730D0A0037
:10AA0000B40000200402020202020200102700002B
:10AA100000200046F4000020300100203101002019
:10AA2000E6000020D7000020C000002003D0002056
:10AA300001F0EEFA277004F0A4FA3C213F4805F03B
:10AA4000FBFB3E49491E002801D1012008703B4C08
:10AA5000641E2078012803D0207800280CD01CE048
:10AA600004F098FC05F02BF83C21344805F025FC57
:10AA7000012812D1277010E003F019F860683049FE
:10AA8000401C6060884208DB3C212C4805F0D4FB68
:10AA9000002801D10120207067600020FFF770F9C5
:10AAA00028480078002802D0002001F03AFAF07817
:10AAB000002801D0FEF749FD23480178002900D085
:10AAC0000770224C20780028C1D0687B002802D073
:10AAD0001FA005F0B3FD2770B9E71848401E816834
:10AAE000002902D08168491E8160704710B500F0CE
:10AAF000CCF81F4A01209110FCF7F8FB03F022FB71
:10AB000003F038FDFCF78EFB7D21C90006F057F9F4
:10AB10001849401E88420CD8174948611748072237
:10AB2000C3691B021B0A4C042343C36100208861D4
:10AB30000A610A20FFF767FD10BD0000B500002084
:10AB4000A086010031010020D6000020C0020020B4
:10AB5000203E20554152542052782052696E672081
:10AB60006275666665722046756C6C0D0A000000A1
:10AB7000006CDC02FFFFFF0000E000E004ED00E0FD
:10AB8000FEB50446032818D25A4E6500705B00904B
:10AB90000120694608715848A700C059FCF724FCF9
:10ABA0005548715B001F025DC01E005DFCF7BDFCD7
:10ABB0005148715BC059FCF78DFCFEBD70B5012397
:10ABC00021241D026406002229462046FCF7D5FCFC
:10ABD000656170BD10B50123212000221946400691
:10ABE000FCF7CBFC10BD70B5012500246D022126B9
:10ABF000760629463046FCF75FFC002801D001208C
:10AC000070BD0520FFF7FFFC641CE4B2052CF0D3F7
:10AC1000002070BD70B5012321245D02640600226E
:10AC200029462046FCF7A9FC656170BD70B501207E
:10AC300003F014FB01229203432554002D06214604
:10AC40002846FDF70CF8224600212846FCF7ABFF0A
:10AC5000002003F003FBFFF7DDFFFFF7C4FF002830
:10AC600011D00020244908390870FFF7B3FFFFF71F
:10AC7000A5FF0020FFF784FF0120FFF781FF0220DE
:10AC8000FFF77EFF70BD0120ECE71C49022008633E
:10AC90001B498860704710B5212001214006FCF750
:10ACA0000BFC10BD70470020704710B5032807D279
:10ACB000104A4100515A104A80001058FCF718FC05
:10ACC00010BD10B5032807D20A4A4100515A0A4A5A
:10ACD00080001058FCF7FEFB10BD032808D206497F
:10ACE000820089584A68034B4000185A42404A6023
:10ACF00070470000381B0100C800002040110041CF
:10AD00000020004170B5054601F01AFB04462934C5
:10AD100001F016FB2B0006F00CFE06100406090CD1
:10AD20000E10012003E0022060700EE0032060702E
:10AD300006E00420FBE70520F9E76078022804D04C
:10AD40000021802004F04DFA70BD0121F9E70029AF
:10AD50000FD00023FE4A00280CD0012813D002286F
:10AD60001AD0032805D1106B401C1ED0D06B4018A0
:10AD7000D0637047106B401C03D0106B40181063F9
:10AD8000704713637047106B401C03D0506B401822
:10AD90005063704753637047106B401C03D0906B37
:10ADA00040189063704793637047D3637047F7B55B
:10ADB00082B015460E46002403F044FA002811D054
:10ADC00003F049FA009003F043FA019003F03DFAD2
:10ADD000074603F037FA01463A46DEA0019B05F02C
:10ADE0002DFC0DE003F037FA009003F031FA07462E
:10ADF00003F02BFA01463A46DCA0009B05F01EFC4E
:10AE0000022D02D0032D02D013E0DDA100E0DDA170
:10AE10003246DDA005F012FC06E00298015DDDA0DF
:10AE200005F00CFC641CA4B2B442F6D3DBA005F020
:10AE300005FC204605B0F0BDFEB50C46074601F006
:10AE40007FFA002506464E360095019502950B2C9B
:10AE500000D30A2422463946684605F0BBFE304638
:10AE600005F03AFEA04207D122466946304605F079
:10AE7000DFFD002800D101252846FEBDF1B584B0D4
:10AE800001F05EFA2930039001F05AFA0546453583
:10AE900001F056FA4E3002906879022804D1002061
:10AEA00003F089FC0028C5D104988104BC48081827
:10AEB000406A002687B20120C002A54C874201D912
:10AEC000074601E0002F3CD0B6480818FCF770FC9C
:10AED000172829D01C2827D022282BD19C483A4655
:10AEE0002830034600901833AF490498FDF7BFFAA5
:10AEF0009749E08440310422081D05F099FD00289F
:10AF000018D09349086C4864287A002812D0084663
:10AF10004030228DC1780192009183784278017887
:10AF2000A2A005F08BFB05E03A469F490498FDF787
:10AF300089F9E084E68226832673E18C0220FFF7FC
:10AF400006FF03984078012804D0022809D16078D0
:10AF5000002806D10298007D012802D1A07A00289D
:10AF600006D0E08C002811D0E879012812D015E035
:10AF700039468D48FFF760FF012808D0A672E684A5
:10AF8000A07A002802D10498FDF78AF852E7012040
:10AF9000A072F4E704F08AF90028F7D02878824FED
:10AFA000012808D06879012822D0287A03283DD0CA
:10AFB00004283BD03FE0287A032801D0042804D19C
:10AFC0000322E18C7848FFF7F2FE002003F0A3FB98
:10AFD000002505E0795D002003F038FB6D1CADB263
:10AFE000E08C8542F6D3002003F0BDFBE18C18E035
:10AFF000607B0128CAD1287A032801D0042804D113
:10B000000322E18C6848FFF7D2FE002505E0795D58
:10B01000002003F01BFB6D1CADB2E08C8542F6D323
:10B0200014E00320FFF793FEE68403E70322E18C9C
:10B030005D48FFF7BCFE002505E0795D002003F0C8
:10B0400005FB6D1CADB2E08C8542F6D381B2E8E71A
:10B05000F8B501F075F905465E48293501885E4866
:10B0600000880A185D480088101A05F0B2FE384CB6
:10B070008EB2A08C01273018FF02B84213D3687C2F
:10B0800000280DD0012E0BD1002003F026FBC1B209
:10B090005348A28C8154687C884201D11046F8BD87
:10B0A000A08C381A86B2E87BA97B0002084305D140
:10B0B000287C002802D1687C002801D000272AE0E3
:10B0C0000025474F08E0002003F007FBA18C7854CF
:10B0D000491C6D1CA184ADB2B542F4D3A08CF8BD5F
:10B0E000002003F0FAFA02463D49A08C0A54401CA5
:10B0F00080B2A0846A7C002A04D009182039C97F54
:10B100008A4204D0297C002903D0814201D180B237
:10B11000F8BD7F1CBFB2B742E2D3E87BA97B000237
:10B1200008435FD0A58C002D5CD0207A002859D030
:10B1300028480188284800880A1828480088101ADA
:10B1400005F047FE002901D1002020722846F8BDF5
:10B15000D8000020205B2564642F253032643A2516
:10B160003032643A253032645D000000205B2530C7
:10B1700032643A253032643A253032645D00000092
:10B1800053324500453253005B25735D5B253034F7
:10B19000645D200025303258200000000D0A0000B8
:10B1A0000002014630000146680B0020203E205579
:10B1B000445020506565722049502F506F72743A88
:10B1C0002025642E25642E25642E2564203A202512
:10B1D000640D0A00CA020020C6020020C802002036
:10B1E000680300200020F8BDFEB5074601F0A8F86E
:10B1F0000546293501F0A4F806464536FFF74BFD14
:10B20000002876D1FFF724FFF34C019000286ED080
:10B2100001460020FFF79BFD307A022801D0042868
:10B2200004D10222ED480199FFF7C1FDEC49B804B1
:10B230004018FCF7BDFA14285FD017283BD01C2813
:10B2400039D0222853D1A878002808D1E8780028DE
:10B2500005D12879002802D16879002806D0687ABB
:10B26000297A00020843AB1C009011E0DA48403014
:10B270000178002908D14178002905D18178002979
:10B2800002D1C07800280AD0D34B208D40330090E3
:10B29000D2493846019AFDF73CF807B205E0307A0A
:10B2A000002802D0CF4805F0C9F9002F1FDDA08C7F
:10B2B000C01BA0841BE0A07A012818D1C7493846DA
:10B2C000019AFCF72FFF00B2002802DDA18C081ABA
:10B2D000A08401200199FFF73AFDE87D012806D1FD
:10B2E000207B002806D0002020730020208300202F
:10B2F000E082FEBD01202071F7E70020A084FEBDA2
:10B30000F0B589B0074601F01BF801F019F80546C1
:10B31000293501F015F80646B148BC044536201819
:10B32000FCF746FA0023B04A00281FD022281BD180
:10B33000AE48018810880A18AD480088101A05F038
:10B3400048FDA54DA88C014302D03846FFF74CFFBD
:10B35000A8482018406A0004000C02D1E88C00289C
:10B3600002D03846FFF78AFD09B0F0BD0020A049A1
:10B370001080088098498884C884A9780A46E03AF1
:10B380000F2A54D801236A46137450745E209074B7
:10B39000E8784006400ED07402902879107501902C
:10B3A0006879507500909348D9382018FCF702FA54
:10B3B0009048E978DA382018FCF7FCF98D482979AB
:10B3C000DB382018FCF7F6F98A486979DC38201850
:10B3D000FCF7F0F9687A297A000208438049D031F5
:10B3E0006118086283480121E5382018FCF7E2F96A
:10B3F00080480021E6382018FCF7DCF97D485E2102
:10B40000E7382018FCF7D6F975480299E83020187B
:10B41000FCF7D0F977480199E3382018FCF7CAF90E
:10B4200074480099E4382018FCF7C4F980230120FF
:10B430000343E879A97902020A4302213846FCF75E
:10B4400009FDB84290D10520FFF75CFCE87BA97BA1
:10B450000002084301D060498883307A002883D0F5
:10B4600065A005F0EBF87FE710B55B4CA08A0028DB
:10B4700009D06849884204D2401C0840A08202D00A
:10B480000DE00020A08202F0F0FE05F0A9FAFBF723
:10B4900075FE614905F09DFC60480818A08280B2E5
:10B4A00010BD4D480021C170C1710171417201721E
:10B4B000C1728172C182018401834184704770B579
:10B4C000054600F03DFF04464549A80429344018CC
:10B4D000FCF76EF9002807D02178032909D0172836
:10B4E00004D01C2802D004E0284670BD2846FCF792
:10B4F000D7FD2846FCF77EFCF6E710B500220621B2
:10B50000FDF796F810BDF0B585B000F019FF0446C0
:10B51000293400F015FF0546453500F011FF0146BE
:10B5200000204E310646009003913D48FCF740F95B
:10B530006946087002903A48401EFCF739F969469E
:10B54000487001903648801EFCF732F969468870D1
:10B5500007463348C01EFCF72BF96946C8700399AB
:10B56000897D012908D11C49897B012904D0287AC9
:10B57000002815D02BA011E00299002906D10199CD
:10B58000002903D1002F01D1002803D0A178002980
:10B5900007D00FE0287A00287ED02CA005F04EF8C6
:10B5A0007AE0E278002A05D12279002A02D1627974
:10B5B000002A6CD0029A8A426FD1E27801999142B6
:10B5C0006BD121798F4268D16179884265D1287A1F
:10B5D000002861D059E05AE0D8000020680300201C
:10B5E0003000014618210100C6020020CA020020D6
:10B5F000C802002000020146203E205345473A552C
:10B6000044505F4D4F44453A534F434B4F50454E86
:10B610000D0A0000FFFF000010270000B88800009E
:10B6200013600046203E205345473A434F4E4E4557
:10B630004354494F4E204641494C4544202D204417
:10B640004E53204661696C65640D0A00203E20530C
:10B6500045473A434F4E4E454354494F4E2046418D
:10B66000494C4544202D20496E76616C696420491F
:10B670005020616464726573733A205A65726F205A
:10B6800049500D0A0000000007E0F4A086E7287A80
:10B69000002801D0FE4881E70126304676E4F1B566
:10B6A00088B000F04DFE00F04BFE0546293500F055
:10B6B00047FE0746453700F043FE4E300024069013
:10B6C00002946846848108988104F248049108181D
:10B6D000FCF76EF8F04A049901268918059117289D
:10B6E00053D01FDC00287AD0132826D0142818D174
:10B6F000EA4C6078002814D1E9480188E9480088BC
:10B700000A18E9480088101A05F063FB002908D0E0
:10B710000898FFF7D4FE6670687B297B0002084317
:10B72000E08321E61828DED01C28FAD1DB4C0598EE
:10B73000406A0004000C73D1F9E0D84E70780128FB
:10B74000EFD1687B297B00020843F18B8842E8D85F
:10B75000F483FFF7D8FE01280DD0687A297A020217
:10B760000A43A91C0898FCF717FC707C401CC0B267
:10B7700070740A28D5D30898FFF7A1FEC9487474DD
:10B780000480C94804807470EEE5C24904981039F9
:10B790004018FCF70DF8C0075DD00220FFF7B2FAA1
:10B7A000BE48C18A002905D1E97AAA7A0902114363
:10B7B00000D0C670B948008B002804D1E87D00286D
:10B7C00001D0B64806710698007D002808D0B3481D
:10B7D0004178012904D0827A114304D005E0ADE01C
:10B7E000AE48867201E046724484387A00281BD045
:10B7F00002AA04210898FCF781FF03AA05210898F2
:10B80000FCF77CFFA5484078002868468189C07A0B
:10B81000009001916846837A427A017A0BD000E069
:10B8200081E0A2A004F00AFF9C484178002904D0DE
:10B83000012907D007E0A8A0F4E79A490C809A49AB
:10B840000C8000E044704474924904980839401810
:10B850000121FBF7AFFF92480188924800880A183F
:10B8600091480088101A05F0B4FA8C4FB88C014347
:10B8700002D00898FFF7B8FC0598406A0004000C55
:10B8800002D1F88C002802D00898FFF7F7FAF87870
:10B8900001280CD1E87AA97A00020843F98A884283
:10B8A00005D80898FFF70BFE3C713C837C70E87D5F
:10B8B000012823D13879012820D1387B002802D0F3
:10B8C00001280ED01AE0687E297E00020843398BD9
:10B8D000884213D8002811D00898FFF70EFE3C8349
:10B8E0003E73E87EA97E00020843398B884205D862
:10B8F000002803D00898FFF700FE3C8378780028E2
:10B9000000D031E50698007D0128FAD1B87A0028E8
:10B91000F7D1788C7B498842F3D30898FFF7CFFDA5
:10B920007C727C8420E50898FFF7A8FAFFE6E08C9B
:10B930000028F8D10898FCF7B3FB15E50120FFF7C4
:10B94000E1F9564A5078002817D020461446D08492
:10B95000FFF78AFD0246212301210898FCF77AFAB5
:10B9600008998842CDD1E87BA97B0002084300D02A
:10B97000A083A079002820D025E0FFF792FD204683
:10B980009084D084E8791446A97902020A432123DD
:10B9900001210898FCF75EFA08998842B1D1E87B4A
:10B9A000A97B0002084300D0A0830898FCF7BDFAE9
:10B9B000387A0028A5D054A009E0687B297B0002D2
:10B9C000084300D0A671387A00289AD058A004F015
:10B9D00035FEC9E4F1B586B000F0B2FC00F0B0FC71
:10B9E0000646293600F0ACFC4530009000F0A8FC7B
:10B9F0004E3000250490029568468581069884049F
:10BA000024482018FBF7D4FE2349671817280DD0C7
:10BA100002DC00281DD13FE11828FCD01C2818D1D9
:10BA20001E4C786A0004000C14D12EE1194810381D
:10BA30002018FBF7BDFEC0070DD00220FFF762F90A
:10BA40001648C18A002907D1F17AB27A0902114356
:10BA500082E014E115E1ACE081E00000203E2053DB
:10BA600045473A434F4E4E454354494F4E20464179
:10BA7000494C4544202D204475706C6963617465A0
:10BA800020495020616464726573730D0A000000E0
:10BA9000642101003000014600020146D800002068
:10BAA000CA020020C6020020C8020020203E205307
:10BAB00045473A434F4E4E454354454420544F204A
:10BAC0002D2025642E25642E25642E2564203A2001
:10BAD00025640D0A00000000203E205345473A43EC
:10BAE0004F4E4E45435445442046524F4D202D2045
:10BAF00025642E25642E25642E2564203A20256495
:10BB00000D0A000088130000203E205345473A5498
:10BB100043505F4D495845445F4D4F44453A534566
:10BB2000525645525F534F434B4F50454E0D0A00FE
:10BB3000203E205345473A5443505F4D49584544B1
:10BB40005F4D4F44453A434C49454E545F534F4334
:10BB50004B4F50454E0D0A0001D00121C170049990
:10BB6000097D00293BD00121417245840098007A6B
:10BB7000002815D002AA04210698FCF7BFFD03AAED
:10BB800005210698FCF7BAFD68468189C07A0090C5
:10BB900001916846837A427A017AF74804F04EFDB3
:10BBA000F64801210580F6480580F6482018FBF785
:10BBB00001FEF5480188F14800880A18F04800881D
:10BBC000101A05F006F9F14CA08C014302D006983A
:10BBD000FFF70AFB786A0004000C06D102E001219D
:10BBE0008172C3E7E08C002802D00698FFF746F97F
:10BBF000E07801280BD1F07AB17A00020843E18A9B
:10BC0000884204D80698FFF75AFC25712583F07DF9
:10BC1000012824D12079012821D1207B002802D0BD
:10BC200001280FD01BE0707E317E00020843218B7B
:10BC3000884214D8002812D00698FFF75EFC2583AE
:10BC400001202073F07EB17E00020843218B8842E0
:10BC500005D8002803D00698FFF74FFC25830498E9
:10BC6000007D01280BD1A07A002808D1608CC8493A
:10BC7000884204D30698FFF722FC6572658407B0FA
:10BC8000F0BD0698FFF7FAF8CBE6E08C0028F8D173
:10BC90000698FCF705FAF2E70120FFF733F8FFF703
:10BCA00000FCBA4C2123A584E584F079B179020225
:10BCB0000A4301210698FCF7CDF806998842DED1A7
:10BCC000F07BB17B0002084300D0A0830698FCF70C
:10BCD0002CF90098007A0028D1D0AEA004F0AEFC78
:10BCE000CDE7F1B584B000F02BFB00F029FB054651
:10BCF000293500F025FB4530009000F021FB0024A1
:10BD0000684602948481049886049E48083030185E
:10BD1000FBF74EFDA8497718172824D019DC002816
:10BD20007DD0132814D1687B2A7B010297481143E8
:10BD3000C28B91420CD8C483FFF7E5FB012807D0E2
:10BD4000687A297A02020A43A91C0498FCF724F9AC
:10BD5000A4E41828E4D01C28FAD18C4C786A00049A
:10BD6000000C7CD1A6E0874808383018FBF720FD8E
:10BD7000C00744D00220FEF7C5FF8448C18A0029CD
:10BD800006D1E97AAA7A0902114301D00121C170D2
:10BD9000018B002904D1E97D002901D00121017125
:10BDA0007A48012181728079012802D17748847113
:10BDB000C4830098007A002816D002AA04210498AF
:10BDC000FCF79CFC03AA05210498FCF797FC684645
:10BDD0008189C07A009001916846837A427A017A1B
:10BDE00065482C3804F02AFC64480121048064482A
:10BDF00004806648C47363483018FBF7DBFC624874
:10BE000001885E4800880A185D480088101A04F00E
:10BE1000E0FF5E4EB08C014304D0049800E050E097
:10BE2000FFF7E2F9786A0004000C02D1F08C0028D8
:10BE300002D00498FFF722F8F07801280BD1E87AB5
:10BE4000A97A00020843F18A884204D80498FFF7CF
:10BE500036FB34713483E87D012801D01EE425E0EF
:10BE600030790128FAD1307B00280FD00128F5D194
:10BE7000E87EA97E00020843318B8842EED8002874
:10BE8000ECD00498FFF739FB348307E4687E297E01
:10BE900000020843318B8842E0D80028DED00498A5
:10BEA000FFF72BFB348301203073E1E70498FEF7A2
:10BEB000E5FF53E7E08C0028F8D10498FCF7F0F890
:10BEC00046E70120FEF71EFFFFF7EBFA2F4EB48482
:10BED000F484FFF7C9FA0246212301210498FBF7F5
:10BEE000B9FF04998842EBD1E87BA97B00020843A3
:10BEF00000D0B083B079002806D1687B297B00028E
:10BF0000084301D00120B0710098007A0028D7D0F2
:10BF1000F07B0028D4D129A004F090FB0120F0731D
:10BF200016E770B5064600F00BFA0546293500F015
:10BF300007FA0446453400F003FA1449A8300A7C95
:10BF4000002A01D000220A740078012859D008780C
:10BF5000012856D12878002806D0012808D00228C8
:10BF60003ED0032843D13FE03046FFF7BAFE3EE023
:10BF70003046FFF72FFD3AE0D8BA0000C602002095
:10BF8000C802002028000146CA020020D800002074
:10BF900088130000203E205345473A5443505F53D6
:10BFA00045525645525F4D4F44453A534F434B4FD0
:10BFB00050454E0D0A00000000020146203E20536D
:10BFC00045473A5443505F434C49454E545F4D4FAB
:10BFD00044453A534F434B4F50454E0D0A00000025
:10BFE0003046FFF75CFB02E03046FFF789F900209E
:10BFF00002F0EFFB6079012801D0022801D102F0A4
:10C00000CFFA70BD10B500F09BF92930407810BD13
:10C01000F8B5044600F094F90746293700F090F986
:10C020000646204645360024AD4D002807D00120A5
:10C030002870FEF767FE387802280DD00DE02C70CE
:10C040000420FEF75FFE307A002811D0A5A004F08E
:10C05000F5FA0E22A8A108E06C70307A002807D00B
:10C06000A9A004F0EBFA0E22ACA1002002F018FB0C
:10C07000AE48AC840480AE480480EC702C71EC7146
:10C080006C71EC822C832C846C832C72F8BDF8B517
:10C090000746A848002400882546A44E00900FE0DB
:10C0A0008F48A5492A30025D30880A54401C009907
:10C0B00004F085FE8A4831802A300555641CE4B2BC
:10C0C000BC42EDD3864845718574F8BD70B5054610
:10C0D00000F036F900F034F9814C002221784E301E
:10C0E000012911D1014640310E46497B00290BD070
:10C0F000A17C23462A33002908D0012912D0022925
:10C1000010D0032927D11AE0002070BDF07BA8428F
:10C1100021D1608BA18B88421DD31D700120A0749A
:10C12000607118E040184030C07BA84210D1608B8D
:10C13000A28B90420CD85D54491CA1740BE0608B1B
:10C14000A18B884200D201220420A074002A02D0D0
:10C15000A07CFFF79CFF00206083A07C70BD70B5C1
:10C16000044600F0EDF80546293500F0E9F80246EE
:10C17000687845320021012806D0022807D004281B
:10C1800005D0052812D102E0287802280ED1507976
:10C19000012101280AD15248112C02D0132C02D0BF
:10C1A00004E0012100E0002141730021084670BD38
:10C1B00010B500F0C5F80446293400F0C1F848482D
:10C1C000017801290BD1E17BA27B0902114306D042
:10C1D000C179002901D10121C1710021018410BD63
:10C1E00000B500223E49030005F0A3FB05090B0D35
:10C1F000070408000A634A638A63CA6300BD0A63CE
:10C2000000BD4A6300BD8A6300BDF8B500F098F830
:10C21000334C0646A0792936484F0025002807D020
:10C22000E08BB84203D2E08B401CE08300E0E58362
:10C230002079002807D0208BB84203D2208B401CE5
:10C24000208300E02583608BA18B884202D2608B23
:10C25000401C6083607900280ED0608BA18B8842DF
:10C260000AD3A07C032815D0FFF711FFF07BB17B28
:10C270000002084313D0A083E079002816D0F07B99
:10C28000B17B00020843218C88420BD9208C401CD2
:10C2900020840BE00120A070A5746571E6E7FF2003
:10C2A000F530E8E72584E57101202072607A0028E6
:10C2B00005D0608CB84203D2608C401C6084F8BD0D
:10C2C0006584F8BD0648C178002906D0C18A1B4A9A
:10C2D000914202D2C18A491CC18201210174704776
:10C2E000D8000020203E205345473A4154204D6F4E
:10C2F00064650D0A000000005345473A4154204D43
:10C300006F64650D0A000000203E205345473A4700
:10C3100057204D6F64650D0A000000005345473AF1
:10C320004757204D6F64650D0A000000C6020020CB
:10C33000C8020020CA02002061180020FFFF000090
:10C34000F9487047F8B5F84EF92030700020707049
:10C35000B0700125F570044630710F21701D04F096
:10C3600096FC0D22F1A1701D04F034FC35750321FB
:10C370007175B175C0227277A823B3770B27EA488D
:10C38000F77702262030067042708370C7700571FF
:10C39000FF2646718671C671047245728572C2723B
:10C3A00003734773E54A8173C11C0A73130A4B7305
:10C3B000431C1A74160A5E740C74260A4E74E04EFE
:10C3C0001E75360A5E750C75230A4B7544768476A5
:10C3D000C476047744778477C47720300570D94BCE
:10C3E000411C0B701B0A4B70C11C0A70120A4A7068
:10C3F00044710C268671C571047244728472C572D0
:10C40000057345730A21183004F041FCC6480A211F
:10C410004E3004F03CFCC448082760308470C4707F
:10C42000047147718771C77107723221093004F0B6
:10C430002EFCBD482B2180308776C5760477417766
:10C440008177C177B84F0F20A037387000207870FF
:10C45000B81C0570290A41703E71310A7971047166
:10C46000210A41713C72B849401E0172090A4172A9
:10C4700001460A31002004F09AFC50203874002054
:10C48000787438461330BD741E21044604F0FFFB57
:10C490001322AEA1204604F09DFB384631302821FE
:10C4A000044604F0F4FB2022ADA1204604F092FBE8
:10C4B000F8BD10B5FEF7F6FBF9239B4A00210120D9
:10C4C00001F0C0FD984A002106231732084601F00A
:10C4D000B9FD954C607821780002084302D0A84944
:10C4E000884207D1FFF72EFFF9238F4A0021012050
:10C4F00001F003FE0121217503206075A0758A4CAF
:10C500004034A07A032805D0042803D0FEF7CBFBE3
:10C51000607110BD617110BDF0B5834E00254036CD
:10C520007D27BFB02C46FF00F9237F4A0021012060
:10C5300001F0E3FDF9236A460021012001F082FDAC
:10C54000F9226946784804F073FA002811D0641C77
:10C55000707BE4B2002803D021468AA004F06EF874
:10C560003846FEF750F8052C01D2012DDCD13FB042
:10C57000F0BD0125F4E710B504F02CFB10BD10B59B
:10C5800004F028FB10BD30B589B0674D03A9012028
:10C59000FCF721FB6846427C017CC07B6B4607C3ED
:10C5A0006846837B427B017B80A004F047F82846E5
:10C5B0002330417B007B090201436846407D0090A7
:10C5C00001916846037DC27C817C82A004F036F82C
:10C5D0006846407F00906846037FC27E817E86A0C9
:10C5E00004F02CF86846407E00906846037EC27DC9
:10C5F000817D87A004F022F808A84078009008A860
:10C6000003786846C27F817F87A004F017F82C4624
:10C610002034607A01282DD06420415D601C0129FE
:10C62000417C0FD0027C0802A17B10430190009155
:10C63000637B227BE17A82A004F000F8607A032811
:10C6400009D017E00A02007C29460243693187A01D
:10C6500003F0F4FF0EE0E07A002808D1207B0028E8
:10C6600005D1607B002802D1A07B002807D089A0DB
:10C6700003F0E4FF86A003F0E1FF09B030BD8AA01B
:10C68000F6E710B5284C8D48E17DFBF793F88B4811
:10C69000217E401EFBF78EF88848617E801EFBF7E6
:10C6A00089F88648A17EC01EFBF784F88348E17EA6
:10C6B000001DFBF77FF88148217FC01CFBF77AF84B
:10C6C00010BD10B5184C86B02146062217316846B9
:10C6D000FFF751FF214601A804221D310230FFF768
:10C6E0004AFF214603A8042221310230FFF743FF0D
:10C6F000214602A8042225310230FFF73CFF2146E3
:10C7000004A8042265310230FFF735FF6034E07879
:10C71000002801D0022000E0012069468875002031
:10C72000FCF759FA06B010BD6813002057495A3774
:10C73000353053522D317878000000008813000006
:10C74000B80B0000581B000052C3000064657669F6
:10C7500063652E77697A77696B692E6E6574000060
:10C760002F77697A37353073722F66772F573735C1
:10C770003030785F5332455F4170702E62696E00D1
:10C78000FFFF0000203E20446576436F6E666967B8
:10C7900020757064617465206661696C65642C2025
:10C7A00052657472793A2025640D0A002023204DC9
:10C7B00041433A20253032583A253032583A253014
:10C7C00032583A253032583A253032583A253032EC
:10C7D000580D0A002023204950203A2025642E2598
:10C7E000642E25642E2564202F20506F72743A2009
:10C7F00025640D0A000000002023204757203A201E
:10C8000025642E25642E25642E25640D0A00000063
:10C81000202320534E203A2025642E25642E2564A3
:10C820002E25640D0A000000202320444E533A2098
:10C8300025642E25642E25642E25640D0A00000033
:10C8400020232044657374696E6174696F6E20499A
:10C85000503A2025642E25642E25642E2564202F31
:10C8600020506F72743A2025640D0A002023204462
:10C87000657374696E6174696F6E20446F6D616970
:10C880006E3A202573202F20506F72743A20256451
:10C890000D0A00002023232055445020313A312036
:10C8A0004D6F64650D0A000020232320554450205D
:10C8B000313A4E204D6F64650D0A0000036000465A
:10C8C00010B5FA49401E884201D9012010BDF8492F
:10C8D0004861F8480722C3691B021B0A4C04234322
:10C8E000C361002088610A6110BDF34A10B5911040
:10C8F0000120FAF7C2FCFAF795FC7D21C90004F08B
:10C900005EFAFFF7DDFF01F035FEEC48EC49806888
:10C91000086010BDEB4910B50A460020FAF7ADFCDF
:10C92000FAF780FC7D21C90004F049FAFFF7C8FF3F
:10C9300001F020FEE2480168E04A91604117016081
:10C9400010BDF8B50027DD4E0D4604460F702836A1
:10C9500009E004F0C1F802462046316804F0DEF830
:10C96000002804D0361D30680028F2D12AE0306853
:10C97000002827D0D1482830301A8005060E2B2EEB
:10C9800007D02C2E11D0A11C284604F07FF8304689
:10C99000F8BD207A0D2815D1607A0A2812D1062216
:10C9A000A11C284604F016F9F1E7002002E0295402
:10C9B000401CC0B2211889780D29F8D12118C978F6
:10C9C0000A2901D0FF20F8BD2F5428184770DEE750
:10C9D000F0B59FB00F460546FFF7B2FC1590002456
:10C9E00018A8047010A884840421384604F04FF974
:10C9F000B5A12846EAE304A9FFF7A3FF0646FF28EE
:10CA00006AD004A804F068F880B203906846007CFD
:10CA1000002856D0A9490A7888210A425DD04B2EB9
:10CA20005AD273007B449B885B009F44B902CC02BE
:10CA3000CC02CF02DD029605EE029605FB0207034B
:10CA400014031D03290336034F035A036F03AE0477
:10CA5000AE04AE04AE04AE04AE04D403E203EE03AF
:10CA6000FB0324043304400450045D0472047E0478
:10CA70008A049904AF04BC04CB04DA04F305F3057B
:10CA8000EB04F305F305F305F305F305F305F305EF
:10CA9000F3058905550096050A050A050A050A05E4
:10CAA00020052005200520054C054E034E034E03AE
:10CAB0004E0370057E054E034E03F305F305A005F6
:10CAC000B1057E48B100283040580178397040786F
:10CAD0007870BF1C169701E0F6E3F7E3330004F02B
